{
  "_format": "hh-sol-artifact-1",
  "contractName": "Lottery",
  "sourceName": "src/backend/contracts/Lottery.sol",
  "abi": [
    {
      "inputs": [
        {
          "internalType": "uint64",
          "name": "subscriptionId",
          "type": "uint64"
        },
        {
          "internalType": "contract THVToken",
          "name": "_token",
          "type": "address"
        }
      ],
      "stateMutability": "nonpayable",
      "type": "constructor"
    },
    {
      "inputs": [
        {
          "internalType": "address",
          "name": "have",
          "type": "address"
        },
        {
          "internalType": "address",
          "name": "want",
          "type": "address"
        }
      ],
      "name": "OnlyCoordinatorCanFulfill",
      "type": "error"
    },
    {
      "anonymous": false,
      "inputs": [
        {
          "indexed": true,
          "internalType": "address",
          "name": "_winner",
          "type": "address"
        },
        {
          "indexed": false,
          "internalType": "uint64",
          "name": "_ticketID",
          "type": "uint64"
        },
        {
          "indexed": false,
          "internalType": "uint256",
          "name": "_amount",
          "type": "uint256"
        }
      ],
      "name": "LotteryAmountPaid",
      "type": "event"
    },
    {
      "anonymous": false,
      "inputs": [
        {
          "indexed": true,
          "internalType": "address",
          "name": "_purchaser",
          "type": "address"
        },
        {
          "indexed": false,
          "internalType": "uint256",
          "name": "_ticketID",
          "type": "uint256"
        }
      ],
      "name": "LotteryTicketPurchased",
      "type": "event"
    },
    {
      "stateMutability": "payable",
      "type": "fallback"
    },
    {
      "inputs": [
        {
          "internalType": "uint64",
          "name": "_ticket",
          "type": "uint64"
        }
      ],
      "name": "buyTicket",
      "outputs": [
        {
          "internalType": "bool",
          "name": "",
          "type": "bool"
        }
      ],
      "stateMutability": "nonpayable",
      "type": "function"
    },
    {
      "inputs": [],
      "name": "claimReward",
      "outputs": [
        {
          "internalType": "address",
          "name": "",
          "type": "address"
        }
      ],
      "stateMutability": "nonpayable",
      "type": "function"
    },
    {
      "inputs": [],
      "name": "getBoughtTickets",
      "outputs": [
        {
          "internalType": "uint256",
          "name": "",
          "type": "uint256"
        }
      ],
      "stateMutability": "view",
      "type": "function"
    },
    {
      "inputs": [],
      "name": "getCurrentPrize",
      "outputs": [
        {
          "internalType": "uint256",
          "name": "",
          "type": "uint256"
        }
      ],
      "stateMutability": "view",
      "type": "function"
    },
    {
      "inputs": [
        {
          "internalType": "address",
          "name": "_player",
          "type": "address"
        }
      ],
      "name": "getTicketsPurchased",
      "outputs": [
        {
          "internalType": "uint64",
          "name": "",
          "type": "uint64"
        }
      ],
      "stateMutability": "view",
      "type": "function"
    },
    {
      "inputs": [],
      "name": "getWinningNumber",
      "outputs": [
        {
          "internalType": "uint64",
          "name": "",
          "type": "uint64"
        }
      ],
      "stateMutability": "view",
      "type": "function"
    },
    {
      "inputs": [
        {
          "internalType": "uint64",
          "name": "_ticket",
          "type": "uint64"
        }
      ],
      "name": "isBought",
      "outputs": [
        {
          "internalType": "bool",
          "name": "",
          "type": "bool"
        }
      ],
      "stateMutability": "view",
      "type": "function"
    },
    {
      "inputs": [],
      "name": "ownedTickets",
      "outputs": [
        {
          "internalType": "uint256",
          "name": "",
          "type": "uint256"
        }
      ],
      "stateMutability": "view",
      "type": "function"
    },
    {
      "inputs": [
        {
          "internalType": "uint256",
          "name": "",
          "type": "uint256"
        }
      ],
      "name": "players",
      "outputs": [
        {
          "internalType": "address",
          "name": "",
          "type": "address"
        }
      ],
      "stateMutability": "view",
      "type": "function"
    },
    {
      "inputs": [],
      "name": "prize",
      "outputs": [
        {
          "internalType": "uint256",
          "name": "",
          "type": "uint256"
        }
      ],
      "stateMutability": "view",
      "type": "function"
    },
    {
      "inputs": [
        {
          "internalType": "uint256",
          "name": "requestId",
          "type": "uint256"
        },
        {
          "internalType": "uint256[]",
          "name": "randomWords",
          "type": "uint256[]"
        }
      ],
      "name": "rawFulfillRandomWords",
      "outputs": [],
      "stateMutability": "nonpayable",
      "type": "function"
    },
    {
      "inputs": [],
      "name": "requestRandomWords",
      "outputs": [],
      "stateMutability": "nonpayable",
      "type": "function"
    },
    {
      "inputs": [],
      "name": "returnReward",
      "outputs": [
        {
          "internalType": "uint256",
          "name": "",
          "type": "uint256"
        }
      ],
      "stateMutability": "nonpayable",
      "type": "function"
    },
    {
      "inputs": [],
      "name": "s_owner",
      "outputs": [
        {
          "internalType": "address",
          "name": "",
          "type": "address"
        }
      ],
      "stateMutability": "view",
      "type": "function"
    },
    {
      "inputs": [],
      "name": "s_randomWords",
      "outputs": [
        {
          "internalType": "uint64",
          "name": "",
          "type": "uint64"
        }
      ],
      "stateMutability": "view",
      "type": "function"
    },
    {
      "inputs": [],
      "name": "s_requestId",
      "outputs": [
        {
          "internalType": "uint256",
          "name": "",
          "type": "uint256"
        }
      ],
      "stateMutability": "view",
      "type": "function"
    },
    {
      "inputs": [],
      "name": "s_ticketMax",
      "outputs": [
        {
          "internalType": "uint64",
          "name": "",
          "type": "uint64"
        }
      ],
      "stateMutability": "view",
      "type": "function"
    },
    {
      "inputs": [],
      "name": "s_ticketPrice",
      "outputs": [
        {
          "internalType": "uint64",
          "name": "",
          "type": "uint64"
        }
      ],
      "stateMutability": "view",
      "type": "function"
    },
    {
      "inputs": [
        {
          "internalType": "uint256",
          "name": "",
          "type": "uint256"
        }
      ],
      "name": "ticketOwner",
      "outputs": [
        {
          "internalType": "address",
          "name": "",
          "type": "address"
        }
      ],
      "stateMutability": "view",
      "type": "function"
    },
    {
      "inputs": [
        {
          "internalType": "address",
          "name": "",
          "type": "address"
        }
      ],
      "name": "ticketsBought",
      "outputs": [
        {
          "internalType": "uint64",
          "name": "",
          "type": "uint64"
        }
      ],
      "stateMutability": "view",
      "type": "function"
    },
    {
      "inputs": [],
      "name": "token",
      "outputs": [
        {
          "internalType": "contract THVToken",
          "name": "",
          "type": "address"
        }
      ],
      "stateMutability": "view",
      "type": "function"
    },
    {
      "inputs": [],
      "name": "winningNumber",
      "outputs": [
        {
          "internalType": "uint64",
          "name": "",
          "type": "uint64"
        }
      ],
      "stateMutability": "view",
      "type": "function"
    },
    {
      "stateMutability": "payable",
      "type": "receive"
    }
  ],
  "bytecode": "0x60a060405260326000806101000a81548167ffffffffffffffff021916908367ffffffffffffffff1602179055506006600060086101000a81548167ffffffffffffffff021916908367ffffffffffffffff160217905550736168499c0cffcacd319c818142124b7a15e857ab600560006101000a81548173ffffffffffffffffffffffffffffffffffffffff021916908373ffffffffffffffffffffffffffffffffffffffff1602179055507fd89b2bf150e3b9e13446986e571fb9cab24b13cea0a43ea20a6049a85cc807cc60001b600655620186a0600760006101000a81548163ffffffff021916908363ffffffff1602179055503480156200010457600080fd5b50604051620024a5380380620024a583398181016040528101906200012a919062000465565b600560009054906101000a900473ffffffffffffffffffffffffffffffffffffffff168073ffffffffffffffffffffffffffffffffffffffff1660808173ffffffffffffffffffffffffffffffffffffffff1660601b8152505050600560009054906101000a900473ffffffffffffffffffffffffffffffffffffffff16600460006101000a81548173ffffffffffffffffffffffffffffffffffffffff021916908373ffffffffffffffffffffffffffffffffffffffff16021790555080601260006101000a81548173ffffffffffffffffffffffffffffffffffffffff021916908373ffffffffffffffffffffffffffffffffffffffff160217905550601260009054906101000a900473ffffffffffffffffffffffffffffffffffffffff1673ffffffffffffffffffffffffffffffffffffffff16630c9fcec93330620f42406040518463ffffffff1660e01b81526004016200028d93929190620004ce565b600060405180830381600087803b158015620002a857600080fd5b505af1158015620002bd573d6000803e3d6000fd5b50505050601260009054906101000a900473ffffffffffffffffffffffffffffffffffffffff1673ffffffffffffffffffffffffffffffffffffffff166323b872dd3330620f42406040518463ffffffff1660e01b81526004016200032593929190620004ce565b602060405180830381600087803b1580156200034057600080fd5b505af115801562000355573d6000803e3d6000fd5b505050506040513d601f19601f820116820180604052508101906200037b919062000433565b5033600160006101000a81548173ffffffffffffffffffffffffffffffffffffffff021916908373ffffffffffffffffffffffffffffffffffffffff16021790555081600460146101000a81548167ffffffffffffffff021916908367ffffffffffffffff1602179055505050620005e4565b600081519050620003ff8162000596565b92915050565b6000815190506200041681620005b0565b92915050565b6000815190506200042d81620005ca565b92915050565b6000602082840312156200044c576200044b62000591565b5b60006200045c84828501620003ee565b91505092915050565b600080604083850312156200047f576200047e62000591565b5b60006200048f858286016200041c565b9250506020620004a28582860162000405565b9150509250929050565b620004b7816200050b565b82525050565b620004c8816200057d565b82525050565b6000606082019050620004e56000830186620004ac565b620004f46020830185620004ac565b620005036040830184620004bd565b949350505050565b600062000518826200053f565b9050919050565b60008115159050919050565b600062000538826200050b565b9050919050565b600073ffffffffffffffffffffffffffffffffffffffff82169050919050565b6000819050919050565b600067ffffffffffffffff82169050919050565b60006200058a826200055f565b9050919050565b600080fd5b620005a1816200051f565b8114620005ad57600080fd5b50565b620005bb816200052b565b8114620005c757600080fd5b50565b620005d58162000569565b8114620005e157600080fd5b50565b60805160601c611e9b6200060a600039600081816105c6015261061a0152611e9b6000f3fe6080604052600436106101395760003560e01c80638b0b9ed4116100ab578063e0c862891161006f578063e0c862891461044d578063e397824014610464578063e3ac5d261461048f578063e89e106a146104ba578063f71d96cb146104e5578063fc0c546a1461052257610140565b80638b0b9ed4146103645780638e845a9e1461038f578063b7f20670146103ba578063b88a802f146103e5578063c2ff12fc1461041057610140565b80636133b2ce116100fd5780636133b2ce1461022c578063634235611461026957806364bae2751461029457806382f23ba3146102bf57806384bd3264146102ea57806388d733b51461032757610140565b80631c1d91ab146101455780631d3c7b91146101825780631fe543e3146101ad57806340338433146101d65780634664611e1461020157610140565b3661014057005b600080fd5b34801561015157600080fd5b5061016c6004803603810190610167919061163a565b61054d565b60405161017991906119db565b60405180910390f35b34801561018e57600080fd5b506101976105aa565b6040516101a491906119db565b60405180910390f35b3480156101b957600080fd5b506101d460048036038101906101cf91906116ee565b6105c4565b005b3480156101e257600080fd5b506101eb610684565b6040516101f891906119a5565b60405180910390f35b34801561020d57600080fd5b5061021661068e565b60405161022391906119db565b60405180910390f35b34801561023857600080fd5b50610253600480360381019061024e919061174a565b6106a8565b60405161026091906118fc565b60405180910390f35b34801561027557600080fd5b5061027e610730565b60405161028b91906119db565b60405180910390f35b3480156102a057600080fd5b506102a961074a565b6040516102b691906119a5565b60405180910390f35b3480156102cb57600080fd5b506102d4610754565b6040516102e191906119a5565b60405180910390f35b3480156102f657600080fd5b50610311600480360381019061030c919061163a565b6109da565b60405161031e91906119db565b60405180910390f35b34801561033357600080fd5b5061034e6004803603810190610349919061174a565b610a01565b60405161035b91906118fc565b60405180910390f35b34801561037057600080fd5b50610379610ea1565b60405161038691906119db565b60405180910390f35b34801561039b57600080fd5b506103a4610ebe565b6040516103b191906119a5565b60405180910390f35b3480156103c657600080fd5b506103cf610ec4565b6040516103dc91906119db565b60405180910390f35b3480156103f157600080fd5b506103fa610edc565b6040516104079190611821565b60405180910390f35b34801561041c57600080fd5b5061043760048036038101906104329190611694565b61116b565b6040516104449190611821565b60405180910390f35b34801561045957600080fd5b506104626111a1565b005b34801561047057600080fd5b5061047961128a565b6040516104869190611821565b60405180910390f35b34801561049b57600080fd5b506104a46112b0565b6040516104b191906119a5565b60405180910390f35b3480156104c657600080fd5b506104cf6112b6565b6040516104dc91906119a5565b60405180910390f35b3480156104f157600080fd5b5061050c60048036038101906105079190611694565b6112bc565b6040516105199190611821565b60405180910390f35b34801561052e57600080fd5b506105376112fb565b604051610544919061196a565b60405180910390f35b6000601060008373ffffffffffffffffffffffffffffffffffffffff1673ffffffffffffffffffffffffffffffffffffffff16815260200190815260200160002060009054906101000a900467ffffffffffffffff169050919050565b600760049054906101000a900467ffffffffffffffff1681565b7f000000000000000000000000000000000000000000000000000000000000000073ffffffffffffffffffffffffffffffffffffffff163373ffffffffffffffffffffffffffffffffffffffff161461067657337f00000000000000000000000000000000000000000000000000000000000000006040517f1cf993f400000000000000000000000000000000000000000000000000000000815260040161066d92919061183c565b60405180910390fd5b6106808282611321565b5050565b6000600354905090565b600060109054906101000a900467ffffffffffffffff1681565b60008073ffffffffffffffffffffffffffffffffffffffff1660098367ffffffffffffffff16600781106106df576106de611d5d565b5b0160009054906101000a900473ffffffffffffffffffffffffffffffffffffffff1673ffffffffffffffffffffffffffffffffffffffff161415610726576000905061072b565b600190505b919050565b600060089054906101000a900467ffffffffffffffff1681565b6000600254905090565b6000806000905060005b60078167ffffffffffffffff16101561084d5760008054906101000a900467ffffffffffffffff166010600060098467ffffffffffffffff16600781106107a8576107a7611d5d565b5b0160009054906101000a900473ffffffffffffffffffffffffffffffffffffffff1673ffffffffffffffffffffffffffffffffffffffff1673ffffffffffffffffffffffffffffffffffffffff16815260200190815260200160002060009054906101000a900467ffffffffffffffff166108239190611b15565b67ffffffffffffffff16826108389190611a81565b9150808061084590611c9d565b91505061075e565b50601260009054906101000a900473ffffffffffffffffffffffffffffffffffffffff1673ffffffffffffffffffffffffffffffffffffffff16630c9fcec930600160009054906101000a900473ffffffffffffffffffffffffffffffffffffffff16846040518463ffffffff1660e01b81526004016108cf93929190611865565b600060405180830381600087803b1580156108e957600080fd5b505af11580156108fd573d6000803e3d6000fd5b50505050601260009054906101000a900473ffffffffffffffffffffffffffffffffffffffff1673ffffffffffffffffffffffffffffffffffffffff1663a9059cbb600160009054906101000a900473ffffffffffffffffffffffffffffffffffffffff16836040518363ffffffff1660e01b81526004016109809291906118d3565b602060405180830381600087803b15801561099a57600080fd5b505af11580156109ae573d6000803e3d6000fd5b505050506040513d601f19601f820116820180604052508101906109d29190611667565b508091505090565b60106020528060005260406000206000915054906101000a900467ffffffffffffffff1681565b6000808267ffffffffffffffff16118015610a5157506001600060089054906101000a900467ffffffffffffffff16610a3a9190611ad7565b67ffffffffffffffff168267ffffffffffffffff16105b610a5a57600080fd5b600073ffffffffffffffffffffffffffffffffffffffff1660098367ffffffffffffffff1660078110610a9057610a8f611d5d565b5b0160009054906101000a900473ffffffffffffffffffffffffffffffffffffffff1673ffffffffffffffffffffffffffffffffffffffff1614610ad257600080fd5b600060089054906101000a900467ffffffffffffffff1667ffffffffffffffff16601060003373ffffffffffffffffffffffffffffffffffffffff1673ffffffffffffffffffffffffffffffffffffffff16815260200190815260200160002060009054906101000a900467ffffffffffffffff1667ffffffffffffffff1610610b5b57600080fd5b601260009054906101000a900473ffffffffffffffffffffffffffffffffffffffff1673ffffffffffffffffffffffffffffffffffffffff16630c9fcec9333060008054906101000a900467ffffffffffffffff166040518463ffffffff1660e01b8152600401610bce9392919061189c565b600060405180830381600087803b158015610be857600080fd5b505af1158015610bfc573d6000803e3d6000fd5b50505050601260009054906101000a900473ffffffffffffffffffffffffffffffffffffffff1673ffffffffffffffffffffffffffffffffffffffff166323b872dd333060008054906101000a900467ffffffffffffffff166040518463ffffffff1660e01b8152600401610c739392919061189c565b602060405180830381600087803b158015610c8d57600080fd5b505af1158015610ca1573d6000803e3d6000fd5b505050506040513d601f19601f82011682018060405250810190610cc59190611667565b50603260036000828254610cd99190611a81565b92505081905550600160026000828254610cf39190611a81565b9250508190555060003390506011819080600181540180825580915050600190039060005260206000200160009091909190916101000a81548173ffffffffffffffffffffffffffffffffffffffff021916908373ffffffffffffffffffffffffffffffffffffffff1602179055506001601060003373ffffffffffffffffffffffffffffffffffffffff1673ffffffffffffffffffffffffffffffffffffffff16815260200190815260200160002060008282829054906101000a900467ffffffffffffffff16610dc59190611ad7565b92506101000a81548167ffffffffffffffff021916908367ffffffffffffffff1602179055508060098467ffffffffffffffff1660078110610e0a57610e09611d5d565b5b0160006101000a81548173ffffffffffffffffffffffffffffffffffffffff021916908373ffffffffffffffffffffffffffffffffffffffff1602179055508073ffffffffffffffffffffffffffffffffffffffff167f5436f9c7563d4b5be022d399b41f15519419cafca0f81c49d0cfbe78b925cbff84604051610e8f91906119c0565b60405180910390a26001915050919050565b60008060109054906101000a900467ffffffffffffffff16905090565b60025481565b60008054906101000a900467ffffffffffffffff1681565b6000806009600060109054906101000a900467ffffffffffffffff1667ffffffffffffffff1660078110610f1357610f12611d5d565b5b0160009054906101000a900473ffffffffffffffffffffffffffffffffffffffff1690508073ffffffffffffffffffffffffffffffffffffffff163373ffffffffffffffffffffffffffffffffffffffff1614610fa5576040517f08c379a0000000000000000000000000000000000000000000000000000000008152600401610f9c90611985565b60405180910390fd5b601260009054906101000a900473ffffffffffffffffffffffffffffffffffffffff1673ffffffffffffffffffffffffffffffffffffffff16630c9fcec930836003546040518463ffffffff1660e01b815260040161100693929190611865565b600060405180830381600087803b15801561102057600080fd5b505af1158015611034573d6000803e3d6000fd5b50505050601260009054906101000a900473ffffffffffffffffffffffffffffffffffffffff1673ffffffffffffffffffffffffffffffffffffffff1663a9059cbb826003546040518363ffffffff1660e01b81526004016110979291906118d3565b602060405180830381600087803b1580156110b157600080fd5b505af11580156110c5573d6000803e3d6000fd5b505050506040513d601f19601f820116820180604052508101906110e99190611667565b508073ffffffffffffffffffffffffffffffffffffffff167f88e10e2c5fc124e16534a2656bbb0d35e634b6b45da693604ba908af778b15c2600060109054906101000a900467ffffffffffffffff1660035460405161114a9291906119f6565b60405180910390a261115a610754565b506111636113c0565b503391505090565b6009816007811061117b57600080fd5b016000915054906101000a900473ffffffffffffffffffffffffffffffffffffffff1681565b600460009054906101000a900473ffffffffffffffffffffffffffffffffffffffff1673ffffffffffffffffffffffffffffffffffffffff16635d3b1d30600654600460149054906101000a900467ffffffffffffffff166003600760009054906101000a900463ffffffff1660016040518663ffffffff1660e01b8152600401611230959493929190611917565b602060405180830381600087803b15801561124a57600080fd5b505af115801561125e573d6000803e3d6000fd5b505050506040513d601f19601f8201168201806040525081019061128291906116c1565b600881905550565b600160009054906101000a900473ffffffffffffffffffffffffffffffffffffffff1681565b60035481565b60085481565b601181815481106112cc57600080fd5b906000526020600020016000915054906101000a900473ffffffffffffffffffffffffffffffffffffffff1681565b601260009054906101000a900473ffffffffffffffffffffffffffffffffffffffff1681565b600160068260008151811061133957611338611d5d565b5b602002602001015161134b9190611cce565b6113559190611a81565b600760046101000a81548167ffffffffffffffff021916908367ffffffffffffffff160217905550600760049054906101000a900467ffffffffffffffff16600060106101000a81548167ffffffffffffffff021916908367ffffffffffffffff1602179055505050565b600080600090505b60118054905081101561148d57600060106000601184815481106113ef576113ee611d5d565b5b9060005260206000200160009054906101000a900473ffffffffffffffffffffffffffffffffffffffff1673ffffffffffffffffffffffffffffffffffffffff1673ffffffffffffffffffffffffffffffffffffffff16815260200190815260200160002060006101000a81548167ffffffffffffffff021916908367ffffffffffffffff160217905550808061148590611c54565b9150506113c8565b506009600061149c91906114e2565b601160006114aa91906114f5565b60008060106101000a81548167ffffffffffffffff021916908367ffffffffffffffff16021790555060006003819055506001905090565b5080600701906114f29190611516565b50565b50805460008255906000526020600020908101906115139190611516565b50565b5b8082111561152f576000816000905550600101611517565b5090565b600061154661154184611a44565b611a1f565b9050808382526020820190508285602086028201111561156957611568611dc0565b5b60005b85811015611599578161157f88826115fb565b84526020840193506020830192505060018101905061156c565b5050509392505050565b6000813590506115b281611e09565b92915050565b600082601f8301126115cd576115cc611dbb565b5b81356115dd848260208601611533565b91505092915050565b6000815190506115f581611e20565b92915050565b60008135905061160a81611e37565b92915050565b60008151905061161f81611e37565b92915050565b60008135905061163481611e4e565b92915050565b6000602082840312156116505761164f611dca565b5b600061165e848285016115a3565b91505092915050565b60006020828403121561167d5761167c611dca565b5b600061168b848285016115e6565b91505092915050565b6000602082840312156116aa576116a9611dca565b5b60006116b8848285016115fb565b91505092915050565b6000602082840312156116d7576116d6611dca565b5b60006116e584828501611610565b91505092915050565b6000806040838503121561170557611704611dca565b5b6000611713858286016115fb565b925050602083013567ffffffffffffffff81111561173457611733611dc5565b5b611740858286016115b8565b9150509250929050565b6000602082840312156117605761175f611dca565b5b600061176e84828501611625565b91505092915050565b61178081611b57565b82525050565b61178f81611b69565b82525050565b61179e81611b75565b82525050565b6117ad81611bdb565b82525050565b60006117c0601283611a70565b91506117cb82611de0565b602082019050919050565b6117df81611b7f565b82525050565b6117ee81611bad565b82525050565b6117fd81611bb7565b82525050565b61180c81611c11565b82525050565b61181b81611bc7565b82525050565b60006020820190506118366000830184611777565b92915050565b60006040820190506118516000830185611777565b61185e6020830184611777565b9392505050565b600060608201905061187a6000830186611777565b6118876020830185611777565b61189460408301846117e5565b949350505050565b60006060820190506118b16000830186611777565b6118be6020830185611777565b6118cb6040830184611803565b949350505050565b60006040820190506118e86000830185611777565b6118f560208301846117e5565b9392505050565b60006020820190506119116000830184611786565b92915050565b600060a08201905061192c6000830188611795565b6119396020830187611812565b61194660408301866117d6565b61195360608301856117f4565b61196060808301846117f4565b9695505050505050565b600060208201905061197f60008301846117a4565b92915050565b6000602082019050818103600083015261199e816117b3565b9050919050565b60006020820190506119ba60008301846117e5565b92915050565b60006020820190506119d56000830184611803565b92915050565b60006020820190506119f06000830184611812565b92915050565b6000604082019050611a0b6000830185611812565b611a1860208301846117e5565b9392505050565b6000611a29611a3a565b9050611a358282611c23565b919050565b6000604051905090565b600067ffffffffffffffff821115611a5f57611a5e611d8c565b5b602082029050602081019050919050565b600082825260208201905092915050565b6000611a8c82611bad565b9150611a9783611bad565b9250827fffffffffffffffffffffffffffffffffffffffffffffffffffffffffffffffff03821115611acc57611acb611cff565b5b828201905092915050565b6000611ae282611bc7565b9150611aed83611bc7565b92508267ffffffffffffffff03821115611b0a57611b09611cff565b5b828201905092915050565b6000611b2082611bc7565b9150611b2b83611bc7565b92508167ffffffffffffffff0483118215151615611b4c57611b4b611cff565b5b828202905092915050565b6000611b6282611b8d565b9050919050565b60008115159050919050565b6000819050919050565b600061ffff82169050919050565b600073ffffffffffffffffffffffffffffffffffffffff82169050919050565b6000819050919050565b600063ffffffff82169050919050565b600067ffffffffffffffff82169050919050565b6000611be682611bed565b9050919050565b6000611bf882611bff565b9050919050565b6000611c0a82611b8d565b9050919050565b6000611c1c82611bc7565b9050919050565b611c2c82611dcf565b810181811067ffffffffffffffff82111715611c4b57611c4a611d8c565b5b80604052505050565b6000611c5f82611bad565b91507fffffffffffffffffffffffffffffffffffffffffffffffffffffffffffffffff821415611c9257611c91611cff565b5b600182019050919050565b6000611ca882611bc7565b915067ffffffffffffffff821415611cc357611cc2611cff565b5b600182019050919050565b6000611cd982611bad565b9150611ce483611bad565b925082611cf457611cf3611d2e565b5b828206905092915050565b7f4e487b7100000000000000000000000000000000000000000000000000000000600052601160045260246000fd5b7f4e487b7100000000000000000000000000000000000000000000000000000000600052601260045260246000fd5b7f4e487b7100000000000000000000000000000000000000000000000000000000600052603260045260246000fd5b7f4e487b7100000000000000000000000000000000000000000000000000000000600052604160045260246000fd5b600080fd5b600080fd5b600080fd5b600080fd5b6000601f19601f8301169050919050565b7f596f7520617265206e6f742077696e6e65720000000000000000000000000000600082015250565b611e1281611b57565b8114611e1d57600080fd5b50565b611e2981611b69565b8114611e3457600080fd5b50565b611e4081611bad565b8114611e4b57600080fd5b50565b611e5781611bc7565b8114611e6257600080fd5b5056fea2646970667358221220baf9b163cced2014d5a2d7557e96a598ea5fe5d781e97125a2c71456a82a563b64736f6c63430008070033",
  "linkReferences": {},
  "deployedLinkReferences": {}
}