{
  "_format": "hh-sol-artifact-1",
  "contractName": "Lottery",
  "sourceName": "src/backend/contracts/Lottery.sol",
  "abi": [
    {
      "inputs": [
        {
          "internalType": "uint64",
          "name": "subscriptionId",
          "type": "uint64"
        },
        {
          "internalType": "contract THVToken",
          "name": "_token",
          "type": "address"
        }
      ],
      "stateMutability": "nonpayable",
      "type": "constructor"
    },
    {
      "inputs": [
        {
          "internalType": "address",
          "name": "have",
          "type": "address"
        },
        {
          "internalType": "address",
          "name": "want",
          "type": "address"
        }
      ],
      "name": "OnlyCoordinatorCanFulfill",
      "type": "error"
    },
    {
      "anonymous": false,
      "inputs": [
        {
          "indexed": true,
          "internalType": "address",
          "name": "_winner",
          "type": "address"
        },
        {
          "indexed": false,
          "internalType": "uint64",
          "name": "_ticketID",
          "type": "uint64"
        },
        {
          "indexed": false,
          "internalType": "uint256",
          "name": "_amount",
          "type": "uint256"
        }
      ],
      "name": "LotteryAmountPaid",
      "type": "event"
    },
    {
      "anonymous": false,
      "inputs": [
        {
          "indexed": true,
          "internalType": "address",
          "name": "_purchaser",
          "type": "address"
        },
        {
          "indexed": false,
          "internalType": "uint256",
          "name": "_ticketID",
          "type": "uint256"
        }
      ],
      "name": "LotteryTicketPurchased",
      "type": "event"
    },
    {
      "stateMutability": "payable",
      "type": "fallback"
    },
    {
      "inputs": [
        {
          "internalType": "uint64",
          "name": "_ticket",
          "type": "uint64"
        }
      ],
      "name": "buyTicket",
      "outputs": [
        {
          "internalType": "bool",
          "name": "",
          "type": "bool"
        }
      ],
      "stateMutability": "nonpayable",
      "type": "function"
    },
    {
      "inputs": [],
      "name": "claimReward",
      "outputs": [
        {
          "internalType": "address",
          "name": "",
          "type": "address"
        }
      ],
      "stateMutability": "nonpayable",
      "type": "function"
    },
    {
      "inputs": [],
      "name": "getBoughtTickets",
      "outputs": [
        {
          "internalType": "uint256",
          "name": "",
          "type": "uint256"
        }
      ],
      "stateMutability": "view",
      "type": "function"
    },
    {
      "inputs": [],
      "name": "getCurrentPrize",
      "outputs": [
        {
          "internalType": "uint256",
          "name": "",
          "type": "uint256"
        }
      ],
      "stateMutability": "view",
      "type": "function"
    },
    {
      "inputs": [
        {
          "internalType": "address",
          "name": "_player",
          "type": "address"
        }
      ],
      "name": "getTicketsPurchased",
      "outputs": [
        {
          "internalType": "uint64",
          "name": "",
          "type": "uint64"
        }
      ],
      "stateMutability": "view",
      "type": "function"
    },
    {
      "inputs": [],
      "name": "getWinningNumber",
      "outputs": [
        {
          "internalType": "uint64",
          "name": "",
          "type": "uint64"
        }
      ],
      "stateMutability": "view",
      "type": "function"
    },
    {
      "inputs": [
        {
          "internalType": "uint64",
          "name": "_ticket",
          "type": "uint64"
        }
      ],
      "name": "isBought",
      "outputs": [
        {
          "internalType": "bool",
          "name": "",
          "type": "bool"
        }
      ],
      "stateMutability": "view",
      "type": "function"
    },
    {
      "inputs": [],
      "name": "ownedTickets",
      "outputs": [
        {
          "internalType": "uint256",
          "name": "",
          "type": "uint256"
        }
      ],
      "stateMutability": "view",
      "type": "function"
    },
    {
      "inputs": [
        {
          "internalType": "uint256",
          "name": "",
          "type": "uint256"
        }
      ],
      "name": "players",
      "outputs": [
        {
          "internalType": "address",
          "name": "",
          "type": "address"
        }
      ],
      "stateMutability": "view",
      "type": "function"
    },
    {
      "inputs": [],
      "name": "prize",
      "outputs": [
        {
          "internalType": "uint256",
          "name": "",
          "type": "uint256"
        }
      ],
      "stateMutability": "view",
      "type": "function"
    },
    {
      "inputs": [
        {
          "internalType": "uint256",
          "name": "requestId",
          "type": "uint256"
        },
        {
          "internalType": "uint256[]",
          "name": "randomWords",
          "type": "uint256[]"
        }
      ],
      "name": "rawFulfillRandomWords",
      "outputs": [],
      "stateMutability": "nonpayable",
      "type": "function"
    },
    {
      "inputs": [],
      "name": "requestRandomWords",
      "outputs": [],
      "stateMutability": "nonpayable",
      "type": "function"
    },
    {
      "inputs": [],
      "name": "returnReward",
      "outputs": [
        {
          "internalType": "uint256",
          "name": "",
          "type": "uint256"
        }
      ],
      "stateMutability": "nonpayable",
      "type": "function"
    },
    {
      "inputs": [],
      "name": "s_owner",
      "outputs": [
        {
          "internalType": "address",
          "name": "",
          "type": "address"
        }
      ],
      "stateMutability": "view",
      "type": "function"
    },
    {
      "inputs": [],
      "name": "s_randomWords",
      "outputs": [
        {
          "internalType": "uint64",
          "name": "",
          "type": "uint64"
        }
      ],
      "stateMutability": "view",
      "type": "function"
    },
    {
      "inputs": [],
      "name": "s_requestId",
      "outputs": [
        {
          "internalType": "uint256",
          "name": "",
          "type": "uint256"
        }
      ],
      "stateMutability": "view",
      "type": "function"
    },
    {
      "inputs": [],
      "name": "s_ticketMax",
      "outputs": [
        {
          "internalType": "uint64",
          "name": "",
          "type": "uint64"
        }
      ],
      "stateMutability": "view",
      "type": "function"
    },
    {
      "inputs": [],
      "name": "s_ticketPrice",
      "outputs": [
        {
          "internalType": "uint64",
          "name": "",
          "type": "uint64"
        }
      ],
      "stateMutability": "view",
      "type": "function"
    },
    {
      "inputs": [
        {
          "internalType": "uint256",
          "name": "",
          "type": "uint256"
        }
      ],
      "name": "ticketOwner",
      "outputs": [
        {
          "internalType": "address",
          "name": "",
          "type": "address"
        }
      ],
      "stateMutability": "view",
      "type": "function"
    },
    {
      "inputs": [
        {
          "internalType": "address",
          "name": "",
          "type": "address"
        }
      ],
      "name": "ticketsBought",
      "outputs": [
        {
          "internalType": "uint64",
          "name": "",
          "type": "uint64"
        }
      ],
      "stateMutability": "view",
      "type": "function"
    },
    {
      "inputs": [],
      "name": "token",
      "outputs": [
        {
          "internalType": "contract THVToken",
          "name": "",
          "type": "address"
        }
      ],
      "stateMutability": "view",
      "type": "function"
    },
    {
      "inputs": [],
      "name": "winningNumber",
      "outputs": [
        {
          "internalType": "uint64",
          "name": "",
          "type": "uint64"
        }
      ],
      "stateMutability": "view",
      "type": "function"
    },
    {
      "stateMutability": "payable",
      "type": "receive"
    }
  ],
  "bytecode": "0x60a060405260326000806101000a81548167ffffffffffffffff021916908367ffffffffffffffff1602179055506006600060086101000a81548167ffffffffffffffff021916908367ffffffffffffffff160217905550736168499c0cffcacd319c818142124b7a15e857ab600560006101000a81548173ffffffffffffffffffffffffffffffffffffffff021916908373ffffffffffffffffffffffffffffffffffffffff1602179055507fd89b2bf150e3b9e13446986e571fb9cab24b13cea0a43ea20a6049a85cc807cc60001b600655620186a0600760006101000a81548163ffffffff021916908363ffffffff1602179055503480156200010457600080fd5b50604051620024ad380380620024ad83398181016040528101906200012a919062000465565b600560009054906101000a900473ffffffffffffffffffffffffffffffffffffffff168073ffffffffffffffffffffffffffffffffffffffff1660808173ffffffffffffffffffffffffffffffffffffffff1660601b8152505050600560009054906101000a900473ffffffffffffffffffffffffffffffffffffffff16600460006101000a81548173ffffffffffffffffffffffffffffffffffffffff021916908373ffffffffffffffffffffffffffffffffffffffff16021790555080601260006101000a81548173ffffffffffffffffffffffffffffffffffffffff021916908373ffffffffffffffffffffffffffffffffffffffff160217905550601260009054906101000a900473ffffffffffffffffffffffffffffffffffffffff1673ffffffffffffffffffffffffffffffffffffffff16630c9fcec93330620f42406040518463ffffffff1660e01b81526004016200028d93929190620004ce565b600060405180830381600087803b158015620002a857600080fd5b505af1158015620002bd573d6000803e3d6000fd5b50505050601260009054906101000a900473ffffffffffffffffffffffffffffffffffffffff1673ffffffffffffffffffffffffffffffffffffffff166323b872dd3330620f42406040518463ffffffff1660e01b81526004016200032593929190620004ce565b602060405180830381600087803b1580156200034057600080fd5b505af115801562000355573d6000803e3d6000fd5b505050506040513d601f19601f820116820180604052508101906200037b919062000433565b5033600160006101000a81548173ffffffffffffffffffffffffffffffffffffffff021916908373ffffffffffffffffffffffffffffffffffffffff16021790555081600460146101000a81548167ffffffffffffffff021916908367ffffffffffffffff1602179055505050620005e4565b600081519050620003ff8162000596565b92915050565b6000815190506200041681620005b0565b92915050565b6000815190506200042d81620005ca565b92915050565b6000602082840312156200044c576200044b62000591565b5b60006200045c84828501620003ee565b91505092915050565b600080604083850312156200047f576200047e62000591565b5b60006200048f858286016200041c565b9250506020620004a28582860162000405565b9150509250929050565b620004b7816200050b565b82525050565b620004c8816200057d565b82525050565b6000606082019050620004e56000830186620004ac565b620004f46020830185620004ac565b620005036040830184620004bd565b949350505050565b600062000518826200053f565b9050919050565b60008115159050919050565b600062000538826200050b565b9050919050565b600073ffffffffffffffffffffffffffffffffffffffff82169050919050565b6000819050919050565b600067ffffffffffffffff82169050919050565b60006200058a826200055f565b9050919050565b600080fd5b620005a1816200051f565b8114620005ad57600080fd5b50565b620005bb816200052b565b8114620005c757600080fd5b50565b620005d58162000569565b8114620005e157600080fd5b50565b60805160601c611ea36200060a600039600081816105c6015261061a0152611ea36000f3fe6080604052600436106101395760003560e01c80638b0b9ed4116100ab578063e0c862891161006f578063e0c862891461044d578063e397824014610464578063e3ac5d261461048f578063e89e106a146104ba578063f71d96cb146104e5578063fc0c546a1461052257610140565b80638b0b9ed4146103645780638e845a9e1461038f578063b7f20670146103ba578063b88a802f146103e5578063c2ff12fc1461041057610140565b80636133b2ce116100fd5780636133b2ce1461022c578063634235611461026957806364bae2751461029457806382f23ba3146102bf57806384bd3264146102ea57806388d733b51461032757610140565b80631c1d91ab146101455780631d3c7b91146101825780631fe543e3146101ad57806340338433146101d65780634664611e1461020157610140565b3661014057005b600080fd5b34801561015157600080fd5b5061016c60048036038101906101679190611642565b61054d565b60405161017991906119e3565b60405180910390f35b34801561018e57600080fd5b506101976105aa565b6040516101a491906119e3565b60405180910390f35b3480156101b957600080fd5b506101d460048036038101906101cf91906116f6565b6105c4565b005b3480156101e257600080fd5b506101eb610684565b6040516101f891906119ad565b60405180910390f35b34801561020d57600080fd5b5061021661068e565b60405161022391906119e3565b60405180910390f35b34801561023857600080fd5b50610253600480360381019061024e9190611752565b6106a8565b6040516102609190611904565b60405180910390f35b34801561027557600080fd5b5061027e610730565b60405161028b91906119e3565b60405180910390f35b3480156102a057600080fd5b506102a961074a565b6040516102b691906119ad565b60405180910390f35b3480156102cb57600080fd5b506102d4610754565b6040516102e191906119ad565b60405180910390f35b3480156102f657600080fd5b50610311600480360381019061030c9190611642565b6109da565b60405161031e91906119e3565b60405180910390f35b34801561033357600080fd5b5061034e60048036038101906103499190611752565b610a01565b60405161035b9190611904565b60405180910390f35b34801561037057600080fd5b50610379610ea1565b60405161038691906119e3565b60405180910390f35b34801561039b57600080fd5b506103a4610ebe565b6040516103b191906119ad565b60405180910390f35b3480156103c657600080fd5b506103cf610ec4565b6040516103dc91906119e3565b60405180910390f35b3480156103f157600080fd5b506103fa610edc565b6040516104079190611829565b60405180910390f35b34801561041c57600080fd5b506104376004803603810190610432919061169c565b61116b565b6040516104449190611829565b60405180910390f35b34801561045957600080fd5b506104626111a1565b005b34801561047057600080fd5b5061047961128a565b6040516104869190611829565b60405180910390f35b34801561049b57600080fd5b506104a46112b0565b6040516104b191906119ad565b60405180910390f35b3480156104c657600080fd5b506104cf6112b6565b6040516104dc91906119ad565b60405180910390f35b3480156104f157600080fd5b5061050c6004803603810190610507919061169c565b6112bc565b6040516105199190611829565b60405180910390f35b34801561052e57600080fd5b506105376112fb565b6040516105449190611972565b60405180910390f35b6000601060008373ffffffffffffffffffffffffffffffffffffffff1673ffffffffffffffffffffffffffffffffffffffff16815260200190815260200160002060009054906101000a900467ffffffffffffffff169050919050565b600760049054906101000a900467ffffffffffffffff1681565b7f000000000000000000000000000000000000000000000000000000000000000073ffffffffffffffffffffffffffffffffffffffff163373ffffffffffffffffffffffffffffffffffffffff161461067657337f00000000000000000000000000000000000000000000000000000000000000006040517f1cf993f400000000000000000000000000000000000000000000000000000000815260040161066d929190611844565b60405180910390fd5b6106808282611321565b5050565b6000600354905090565b600060109054906101000a900467ffffffffffffffff1681565b60008073ffffffffffffffffffffffffffffffffffffffff1660098367ffffffffffffffff16600781106106df576106de611d65565b5b0160009054906101000a900473ffffffffffffffffffffffffffffffffffffffff1673ffffffffffffffffffffffffffffffffffffffff161415610726576000905061072b565b600190505b919050565b600060089054906101000a900467ffffffffffffffff1681565b6000600254905090565b6000806000905060005b60078167ffffffffffffffff16101561084d5760008054906101000a900467ffffffffffffffff166010600060098467ffffffffffffffff16600781106107a8576107a7611d65565b5b0160009054906101000a900473ffffffffffffffffffffffffffffffffffffffff1673ffffffffffffffffffffffffffffffffffffffff1673ffffffffffffffffffffffffffffffffffffffff16815260200190815260200160002060009054906101000a900467ffffffffffffffff166108239190611b1d565b67ffffffffffffffff16826108389190611a89565b9150808061084590611ca5565b91505061075e565b50601260009054906101000a900473ffffffffffffffffffffffffffffffffffffffff1673ffffffffffffffffffffffffffffffffffffffff16630c9fcec930600160009054906101000a900473ffffffffffffffffffffffffffffffffffffffff16846040518463ffffffff1660e01b81526004016108cf9392919061186d565b600060405180830381600087803b1580156108e957600080fd5b505af11580156108fd573d6000803e3d6000fd5b50505050601260009054906101000a900473ffffffffffffffffffffffffffffffffffffffff1673ffffffffffffffffffffffffffffffffffffffff1663a9059cbb600160009054906101000a900473ffffffffffffffffffffffffffffffffffffffff16836040518363ffffffff1660e01b81526004016109809291906118db565b602060405180830381600087803b15801561099a57600080fd5b505af11580156109ae573d6000803e3d6000fd5b505050506040513d601f19601f820116820180604052508101906109d2919061166f565b508091505090565b60106020528060005260406000206000915054906101000a900467ffffffffffffffff1681565b6000808267ffffffffffffffff16118015610a5157506001600060089054906101000a900467ffffffffffffffff16610a3a9190611adf565b67ffffffffffffffff168267ffffffffffffffff16105b610a5a57600080fd5b600073ffffffffffffffffffffffffffffffffffffffff1660098367ffffffffffffffff1660078110610a9057610a8f611d65565b5b0160009054906101000a900473ffffffffffffffffffffffffffffffffffffffff1673ffffffffffffffffffffffffffffffffffffffff1614610ad257600080fd5b600060089054906101000a900467ffffffffffffffff1667ffffffffffffffff16601060003373ffffffffffffffffffffffffffffffffffffffff1673ffffffffffffffffffffffffffffffffffffffff16815260200190815260200160002060009054906101000a900467ffffffffffffffff1667ffffffffffffffff1610610b5b57600080fd5b601260009054906101000a900473ffffffffffffffffffffffffffffffffffffffff1673ffffffffffffffffffffffffffffffffffffffff16630c9fcec9333060008054906101000a900467ffffffffffffffff166040518463ffffffff1660e01b8152600401610bce939291906118a4565b600060405180830381600087803b158015610be857600080fd5b505af1158015610bfc573d6000803e3d6000fd5b50505050601260009054906101000a900473ffffffffffffffffffffffffffffffffffffffff1673ffffffffffffffffffffffffffffffffffffffff166323b872dd333060008054906101000a900467ffffffffffffffff166040518463ffffffff1660e01b8152600401610c73939291906118a4565b602060405180830381600087803b158015610c8d57600080fd5b505af1158015610ca1573d6000803e3d6000fd5b505050506040513d601f19601f82011682018060405250810190610cc5919061166f565b50603260036000828254610cd99190611a89565b92505081905550600160026000828254610cf39190611a89565b9250508190555060003390506011819080600181540180825580915050600190039060005260206000200160009091909190916101000a81548173ffffffffffffffffffffffffffffffffffffffff021916908373ffffffffffffffffffffffffffffffffffffffff1602179055506001601060003373ffffffffffffffffffffffffffffffffffffffff1673ffffffffffffffffffffffffffffffffffffffff16815260200190815260200160002060008282829054906101000a900467ffffffffffffffff16610dc59190611adf565b92506101000a81548167ffffffffffffffff021916908367ffffffffffffffff1602179055508060098467ffffffffffffffff1660078110610e0a57610e09611d65565b5b0160006101000a81548173ffffffffffffffffffffffffffffffffffffffff021916908373ffffffffffffffffffffffffffffffffffffffff1602179055508073ffffffffffffffffffffffffffffffffffffffff167f5436f9c7563d4b5be022d399b41f15519419cafca0f81c49d0cfbe78b925cbff84604051610e8f91906119c8565b60405180910390a26001915050919050565b60008060109054906101000a900467ffffffffffffffff16905090565b60025481565b60008054906101000a900467ffffffffffffffff1681565b6000806009600060109054906101000a900467ffffffffffffffff1667ffffffffffffffff1660078110610f1357610f12611d65565b5b0160009054906101000a900473ffffffffffffffffffffffffffffffffffffffff1690508073ffffffffffffffffffffffffffffffffffffffff163373ffffffffffffffffffffffffffffffffffffffff1614610fa5576040517f08c379a0000000000000000000000000000000000000000000000000000000008152600401610f9c9061198d565b60405180910390fd5b601260009054906101000a900473ffffffffffffffffffffffffffffffffffffffff1673ffffffffffffffffffffffffffffffffffffffff16630c9fcec930836003546040518463ffffffff1660e01b81526004016110069392919061186d565b600060405180830381600087803b15801561102057600080fd5b505af1158015611034573d6000803e3d6000fd5b50505050601260009054906101000a900473ffffffffffffffffffffffffffffffffffffffff1673ffffffffffffffffffffffffffffffffffffffff1663a9059cbb826003546040518363ffffffff1660e01b81526004016110979291906118db565b602060405180830381600087803b1580156110b157600080fd5b505af11580156110c5573d6000803e3d6000fd5b505050506040513d601f19601f820116820180604052508101906110e9919061166f565b508073ffffffffffffffffffffffffffffffffffffffff167f88e10e2c5fc124e16534a2656bbb0d35e634b6b45da693604ba908af778b15c2600060109054906101000a900467ffffffffffffffff1660035460405161114a9291906119fe565b60405180910390a261115a610754565b506111636113c0565b503391505090565b6009816007811061117b57600080fd5b016000915054906101000a900473ffffffffffffffffffffffffffffffffffffffff1681565b600460009054906101000a900473ffffffffffffffffffffffffffffffffffffffff1673ffffffffffffffffffffffffffffffffffffffff16635d3b1d30600654600460149054906101000a900467ffffffffffffffff166003600760009054906101000a900463ffffffff1660016040518663ffffffff1660e01b815260040161123095949392919061191f565b602060405180830381600087803b15801561124a57600080fd5b505af115801561125e573d6000803e3d6000fd5b505050506040513d601f19601f8201168201806040525081019061128291906116c9565b600881905550565b600160009054906101000a900473ffffffffffffffffffffffffffffffffffffffff1681565b60035481565b60085481565b601181815481106112cc57600080fd5b906000526020600020016000915054906101000a900473ffffffffffffffffffffffffffffffffffffffff1681565b601260009054906101000a900473ffffffffffffffffffffffffffffffffffffffff1681565b600160068260008151811061133957611338611d65565b5b602002602001015161134b9190611cd6565b6113559190611a89565b600760046101000a81548167ffffffffffffffff021916908367ffffffffffffffff160217905550600760049054906101000a900467ffffffffffffffff16600060106101000a81548167ffffffffffffffff021916908367ffffffffffffffff1602179055505050565b600080600090505b60118054905081101561148d57600060106000601184815481106113ef576113ee611d65565b5b9060005260206000200160009054906101000a900473ffffffffffffffffffffffffffffffffffffffff1673ffffffffffffffffffffffffffffffffffffffff1673ffffffffffffffffffffffffffffffffffffffff16815260200190815260200160002060006101000a81548167ffffffffffffffff021916908367ffffffffffffffff160217905550808061148590611c5c565b9150506113c8565b506009600061149c91906114ea565b601160006114aa91906114fd565b600060028190555060008060106101000a81548167ffffffffffffffff021916908367ffffffffffffffff16021790555060006003819055506001905090565b5080600701906114fa919061151e565b50565b508054600082559060005260206000209081019061151b919061151e565b50565b5b8082111561153757600081600090555060010161151f565b5090565b600061154e61154984611a4c565b611a27565b9050808382526020820190508285602086028201111561157157611570611dc8565b5b60005b858110156115a157816115878882611603565b845260208401935060208301925050600181019050611574565b5050509392505050565b6000813590506115ba81611e11565b92915050565b600082601f8301126115d5576115d4611dc3565b5b81356115e584826020860161153b565b91505092915050565b6000815190506115fd81611e28565b92915050565b60008135905061161281611e3f565b92915050565b60008151905061162781611e3f565b92915050565b60008135905061163c81611e56565b92915050565b60006020828403121561165857611657611dd2565b5b6000611666848285016115ab565b91505092915050565b60006020828403121561168557611684611dd2565b5b6000611693848285016115ee565b91505092915050565b6000602082840312156116b2576116b1611dd2565b5b60006116c084828501611603565b91505092915050565b6000602082840312156116df576116de611dd2565b5b60006116ed84828501611618565b91505092915050565b6000806040838503121561170d5761170c611dd2565b5b600061171b85828601611603565b925050602083013567ffffffffffffffff81111561173c5761173b611dcd565b5b611748858286016115c0565b9150509250929050565b60006020828403121561176857611767611dd2565b5b60006117768482850161162d565b91505092915050565b61178881611b5f565b82525050565b61179781611b71565b82525050565b6117a681611b7d565b82525050565b6117b581611be3565b82525050565b60006117c8601283611a78565b91506117d382611de8565b602082019050919050565b6117e781611b87565b82525050565b6117f681611bb5565b82525050565b61180581611bbf565b82525050565b61181481611c19565b82525050565b61182381611bcf565b82525050565b600060208201905061183e600083018461177f565b92915050565b6000604082019050611859600083018561177f565b611866602083018461177f565b9392505050565b6000606082019050611882600083018661177f565b61188f602083018561177f565b61189c60408301846117ed565b949350505050565b60006060820190506118b9600083018661177f565b6118c6602083018561177f565b6118d3604083018461180b565b949350505050565b60006040820190506118f0600083018561177f565b6118fd60208301846117ed565b9392505050565b6000602082019050611919600083018461178e565b92915050565b600060a082019050611934600083018861179d565b611941602083018761181a565b61194e60408301866117de565b61195b60608301856117fc565b61196860808301846117fc565b9695505050505050565b600060208201905061198760008301846117ac565b92915050565b600060208201905081810360008301526119a6816117bb565b9050919050565b60006020820190506119c260008301846117ed565b92915050565b60006020820190506119dd600083018461180b565b92915050565b60006020820190506119f8600083018461181a565b92915050565b6000604082019050611a13600083018561181a565b611a2060208301846117ed565b9392505050565b6000611a31611a42565b9050611a3d8282611c2b565b919050565b6000604051905090565b600067ffffffffffffffff821115611a6757611a66611d94565b5b602082029050602081019050919050565b600082825260208201905092915050565b6000611a9482611bb5565b9150611a9f83611bb5565b9250827fffffffffffffffffffffffffffffffffffffffffffffffffffffffffffffffff03821115611ad457611ad3611d07565b5b828201905092915050565b6000611aea82611bcf565b9150611af583611bcf565b92508267ffffffffffffffff03821115611b1257611b11611d07565b5b828201905092915050565b6000611b2882611bcf565b9150611b3383611bcf565b92508167ffffffffffffffff0483118215151615611b5457611b53611d07565b5b828202905092915050565b6000611b6a82611b95565b9050919050565b60008115159050919050565b6000819050919050565b600061ffff82169050919050565b600073ffffffffffffffffffffffffffffffffffffffff82169050919050565b6000819050919050565b600063ffffffff82169050919050565b600067ffffffffffffffff82169050919050565b6000611bee82611bf5565b9050919050565b6000611c0082611c07565b9050919050565b6000611c1282611b95565b9050919050565b6000611c2482611bcf565b9050919050565b611c3482611dd7565b810181811067ffffffffffffffff82111715611c5357611c52611d94565b5b80604052505050565b6000611c6782611bb5565b91507fffffffffffffffffffffffffffffffffffffffffffffffffffffffffffffffff821415611c9a57611c99611d07565b5b600182019050919050565b6000611cb082611bcf565b915067ffffffffffffffff821415611ccb57611cca611d07565b5b600182019050919050565b6000611ce182611bb5565b9150611cec83611bb5565b925082611cfc57611cfb611d36565b5b828206905092915050565b7f4e487b7100000000000000000000000000000000000000000000000000000000600052601160045260246000fd5b7f4e487b7100000000000000000000000000000000000000000000000000000000600052601260045260246000fd5b7f4e487b7100000000000000000000000000000000000000000000000000000000600052603260045260246000fd5b7f4e487b7100000000000000000000000000000000000000000000000000000000600052604160045260246000fd5b600080fd5b600080fd5b600080fd5b600080fd5b6000601f19601f8301169050919050565b7f596f7520617265206e6f742077696e6e65720000000000000000000000000000600082015250565b611e1a81611b5f565b8114611e2557600080fd5b50565b611e3181611b71565b8114611e3c57600080fd5b50565b611e4881611bb5565b8114611e5357600080fd5b50565b611e5f81611bcf565b8114611e6a57600080fd5b5056fea26469706673582212207008792b776c7751fde27240c7386c489aee68bd955c3f2e0eedaf22e77ae0c864736f6c63430008070033",
  "linkReferences": {},
  "deployedLinkReferences": {}
}