{
  "_format": "hh-sol-artifact-1",
  "contractName": "Lottery",
  "sourceName": "src/backend/contracts/Lottery.sol",
  "abi": [
    {
      "inputs": [
        {
          "internalType": "uint64",
          "name": "subscriptionId",
          "type": "uint64"
        },
        {
          "internalType": "contract LTRToken",
          "name": "_token",
          "type": "address"
        }
      ],
      "stateMutability": "nonpayable",
      "type": "constructor"
    },
    {
      "inputs": [
        {
          "internalType": "address",
          "name": "have",
          "type": "address"
        },
        {
          "internalType": "address",
          "name": "want",
          "type": "address"
        }
      ],
      "name": "OnlyCoordinatorCanFulfill",
      "type": "error"
    },
    {
      "anonymous": false,
      "inputs": [
        {
          "indexed": true,
          "internalType": "address",
          "name": "_winner",
          "type": "address"
        },
        {
          "indexed": false,
          "internalType": "uint64",
          "name": "_ticketID",
          "type": "uint64"
        },
        {
          "indexed": false,
          "internalType": "uint256",
          "name": "_amount",
          "type": "uint256"
        }
      ],
      "name": "LotteryAmountPaid",
      "type": "event"
    },
    {
      "anonymous": false,
      "inputs": [
        {
          "indexed": true,
          "internalType": "address",
          "name": "_purchaser",
          "type": "address"
        },
        {
          "indexed": false,
          "internalType": "uint256",
          "name": "_ticketID",
          "type": "uint256"
        }
      ],
      "name": "LotteryTicketPurchased",
      "type": "event"
    },
    {
      "stateMutability": "payable",
      "type": "fallback"
    },
    {
      "inputs": [
        {
          "internalType": "uint64",
          "name": "_ticket",
          "type": "uint64"
        }
      ],
      "name": "buyTicket",
      "outputs": [
        {
          "internalType": "bool",
          "name": "",
          "type": "bool"
        }
      ],
      "stateMutability": "nonpayable",
      "type": "function"
    },
    {
      "inputs": [],
      "name": "claimReward",
      "outputs": [
        {
          "internalType": "address",
          "name": "",
          "type": "address"
        }
      ],
      "stateMutability": "nonpayable",
      "type": "function"
    },
    {
      "inputs": [
        {
          "internalType": "address",
          "name": "_player",
          "type": "address"
        }
      ],
      "name": "getTicketsPurchased",
      "outputs": [
        {
          "internalType": "uint64",
          "name": "",
          "type": "uint64"
        }
      ],
      "stateMutability": "view",
      "type": "function"
    },
    {
      "inputs": [
        {
          "internalType": "uint256",
          "name": "",
          "type": "uint256"
        }
      ],
      "name": "players",
      "outputs": [
        {
          "internalType": "address",
          "name": "",
          "type": "address"
        }
      ],
      "stateMutability": "view",
      "type": "function"
    },
    {
      "inputs": [
        {
          "internalType": "uint256",
          "name": "requestId",
          "type": "uint256"
        },
        {
          "internalType": "uint256[]",
          "name": "randomWords",
          "type": "uint256[]"
        }
      ],
      "name": "rawFulfillRandomWords",
      "outputs": [],
      "stateMutability": "nonpayable",
      "type": "function"
    },
    {
      "inputs": [],
      "name": "requestRandomWords",
      "outputs": [],
      "stateMutability": "nonpayable",
      "type": "function"
    },
    {
      "inputs": [],
      "name": "returnReward",
      "outputs": [
        {
          "internalType": "uint256",
          "name": "",
          "type": "uint256"
        }
      ],
      "stateMutability": "nonpayable",
      "type": "function"
    },
    {
      "inputs": [],
      "name": "s_owner",
      "outputs": [
        {
          "internalType": "address",
          "name": "",
          "type": "address"
        }
      ],
      "stateMutability": "view",
      "type": "function"
    },
    {
      "inputs": [],
      "name": "s_randomWords",
      "outputs": [
        {
          "internalType": "uint64",
          "name": "",
          "type": "uint64"
        }
      ],
      "stateMutability": "view",
      "type": "function"
    },
    {
      "inputs": [],
      "name": "s_requestId",
      "outputs": [
        {
          "internalType": "uint256",
          "name": "",
          "type": "uint256"
        }
      ],
      "stateMutability": "view",
      "type": "function"
    },
    {
      "inputs": [],
      "name": "s_ticketMax",
      "outputs": [
        {
          "internalType": "uint64",
          "name": "",
          "type": "uint64"
        }
      ],
      "stateMutability": "view",
      "type": "function"
    },
    {
      "inputs": [],
      "name": "s_ticketPrice",
      "outputs": [
        {
          "internalType": "uint64",
          "name": "",
          "type": "uint64"
        }
      ],
      "stateMutability": "view",
      "type": "function"
    },
    {
      "inputs": [
        {
          "internalType": "uint256",
          "name": "",
          "type": "uint256"
        }
      ],
      "name": "ticketOwner",
      "outputs": [
        {
          "internalType": "address",
          "name": "",
          "type": "address"
        }
      ],
      "stateMutability": "view",
      "type": "function"
    },
    {
      "inputs": [
        {
          "internalType": "address",
          "name": "",
          "type": "address"
        }
      ],
      "name": "ticketsBought",
      "outputs": [
        {
          "internalType": "uint64",
          "name": "",
          "type": "uint64"
        }
      ],
      "stateMutability": "view",
      "type": "function"
    },
    {
      "inputs": [],
      "name": "token",
      "outputs": [
        {
          "internalType": "contract LTRToken",
          "name": "",
          "type": "address"
        }
      ],
      "stateMutability": "view",
      "type": "function"
    },
    {
      "inputs": [],
      "name": "winningNumber",
      "outputs": [
        {
          "internalType": "uint64",
          "name": "",
          "type": "uint64"
        }
      ],
      "stateMutability": "view",
      "type": "function"
    },
    {
      "stateMutability": "payable",
      "type": "receive"
    }
  ],
  "bytecode": "0x60a060405260326000806101000a81548167ffffffffffffffff021916908367ffffffffffffffff1602179055506006600060086101000a81548167ffffffffffffffff021916908367ffffffffffffffff160217905550736168499c0cffcacd319c818142124b7a15e857ab600360006101000a81548173ffffffffffffffffffffffffffffffffffffffff021916908373ffffffffffffffffffffffffffffffffffffffff1602179055507fd89b2bf150e3b9e13446986e571fb9cab24b13cea0a43ea20a6049a85cc807cc60001b600455620186a0600560006101000a81548163ffffffff021916908363ffffffff1602179055503480156200010457600080fd5b5060405162001fda38038062001fda83398181016040528101906200012a9190620003cd565b600360009054906101000a900473ffffffffffffffffffffffffffffffffffffffff168073ffffffffffffffffffffffffffffffffffffffff1660808173ffffffffffffffffffffffffffffffffffffffff1660601b8152505050600360009054906101000a900473ffffffffffffffffffffffffffffffffffffffff16600260006101000a81548173ffffffffffffffffffffffffffffffffffffffff021916908373ffffffffffffffffffffffffffffffffffffffff16021790555080601060006101000a81548173ffffffffffffffffffffffffffffffffffffffff021916908373ffffffffffffffffffffffffffffffffffffffff160217905550601060009054906101000a900473ffffffffffffffffffffffffffffffffffffffff1673ffffffffffffffffffffffffffffffffffffffff166323b872dd3330620f42406040518463ffffffff1660e01b81526004016200028d9392919062000436565b602060405180830381600087803b158015620002a857600080fd5b505af1158015620002bd573d6000803e3d6000fd5b505050506040513d601f19601f82011682018060405250810190620002e391906200039b565b5033600160006101000a81548173ffffffffffffffffffffffffffffffffffffffff021916908373ffffffffffffffffffffffffffffffffffffffff16021790555081600260146101000a81548167ffffffffffffffff021916908367ffffffffffffffff16021790555050506200054c565b6000815190506200036781620004fe565b92915050565b6000815190506200037e8162000518565b92915050565b600081519050620003958162000532565b92915050565b600060208284031215620003b457620003b3620004f9565b5b6000620003c48482850162000356565b91505092915050565b60008060408385031215620003e757620003e6620004f9565b5b6000620003f78582860162000384565b92505060206200040a858286016200036d565b9150509250929050565b6200041f8162000473565b82525050565b6200043081620004e5565b82525050565b60006060820190506200044d600083018662000414565b6200045c602083018562000414565b6200046b604083018462000425565b949350505050565b60006200048082620004a7565b9050919050565b60008115159050919050565b6000620004a08262000473565b9050919050565b600073ffffffffffffffffffffffffffffffffffffffff82169050919050565b6000819050919050565b600067ffffffffffffffff82169050919050565b6000620004f282620004c7565b9050919050565b600080fd5b620005098162000487565b81146200051557600080fd5b50565b620005238162000493565b81146200052f57600080fd5b50565b6200053d81620004d1565b81146200054957600080fd5b50565b60805160601c611a68620005726000396000818161047001526104c40152611a686000f3fe6080604052600436106100f75760003560e01c8063b7f206701161008a578063e397824011610059578063e397824014610339578063e89e106a14610364578063f71d96cb1461038f578063fc0c546a146103cc576100fe565b8063b7f206701461028f578063b88a802f146102ba578063c2ff12fc146102e5578063e0c8628914610322576100fe565b806363423561116100c657806363423561146101bf57806382f23ba3146101ea57806384bd32641461021557806388d733b514610252576100fe565b80631c1d91ab146101035780631d3c7b91146101405780631fe543e31461016b5780634664611e14610194576100fe565b366100fe57005b600080fd5b34801561010f57600080fd5b5061012a60048036038101906101259190611230565b6103f7565b60405161013791906115a8565b60405180910390f35b34801561014c57600080fd5b50610155610454565b60405161016291906115a8565b60405180910390f35b34801561017757600080fd5b50610192600480360381019061018d91906112e4565b61046e565b005b3480156101a057600080fd5b506101a961052e565b6040516101b691906115a8565b60405180910390f35b3480156101cb57600080fd5b506101d4610548565b6040516101e191906115a8565b60405180910390f35b3480156101f657600080fd5b506101ff610562565b60405161020c9190611572565b60405180910390f35b34801561022157600080fd5b5061023c60048036038101906102379190611230565b610737565b60405161024991906115a8565b60405180910390f35b34801561025e57600080fd5b5061027960048036038101906102749190611340565b61075e565b60405161028691906114c9565b60405180910390f35b34801561029b57600080fd5b506102a4610b25565b6040516102b191906115a8565b60405180910390f35b3480156102c657600080fd5b506102cf610b3d565b6040516102dc9190611417565b60405180910390f35b3480156102f157600080fd5b5061030c6004803603810190610307919061128a565b610d3e565b6040516103199190611417565b60405180910390f35b34801561032e57600080fd5b50610337610d74565b005b34801561034557600080fd5b5061034e610eb7565b60405161035b9190611417565b60405180910390f35b34801561037057600080fd5b50610379610edd565b6040516103869190611572565b60405180910390f35b34801561039b57600080fd5b506103b660048036038101906103b1919061128a565b610ee3565b6040516103c39190611417565b60405180910390f35b3480156103d857600080fd5b506103e1610f22565b6040516103ee9190611537565b60405180910390f35b6000600e60008373ffffffffffffffffffffffffffffffffffffffff1673ffffffffffffffffffffffffffffffffffffffff16815260200190815260200160002060009054906101000a900467ffffffffffffffff169050919050565b600560049054906101000a900467ffffffffffffffff1681565b7f000000000000000000000000000000000000000000000000000000000000000073ffffffffffffffffffffffffffffffffffffffff163373ffffffffffffffffffffffffffffffffffffffff161461052057337f00000000000000000000000000000000000000000000000000000000000000006040517f1cf993f4000000000000000000000000000000000000000000000000000000008152600401610517929190611432565b60405180910390fd5b61052a8282610f48565b5050565b600060109054906101000a900467ffffffffffffffff1681565b600060089054906101000a900467ffffffffffffffff1681565b6000806000905060005b60078167ffffffffffffffff16101561065b5760008054906101000a900467ffffffffffffffff16600e600060078467ffffffffffffffff16600781106105b6576105b561192a565b5b0160009054906101000a900473ffffffffffffffffffffffffffffffffffffffff1673ffffffffffffffffffffffffffffffffffffffff1673ffffffffffffffffffffffffffffffffffffffff16815260200190815260200160002060009054906101000a900467ffffffffffffffff1661063191906116e2565b67ffffffffffffffff1682610646919061164e565b915080806106539061186a565b91505061056c565b50601060009054906101000a900473ffffffffffffffffffffffffffffffffffffffff1673ffffffffffffffffffffffffffffffffffffffff166323b872dd30600160009054906101000a900473ffffffffffffffffffffffffffffffffffffffff16846040518463ffffffff1660e01b81526004016106dd9392919061145b565b602060405180830381600087803b1580156106f757600080fd5b505af115801561070b573d6000803e3d6000fd5b505050506040513d601f19601f8201168201806040525081019061072f919061125d565b508091505090565b600e6020528060005260406000206000915054906101000a900467ffffffffffffffff1681565b6000808267ffffffffffffffff161180156107ae57506001600060089054906101000a900467ffffffffffffffff1661079791906116a4565b67ffffffffffffffff168267ffffffffffffffff16105b6107b757600080fd5b600073ffffffffffffffffffffffffffffffffffffffff1660078367ffffffffffffffff16600781106107ed576107ec61192a565b5b0160009054906101000a900473ffffffffffffffffffffffffffffffffffffffff1673ffffffffffffffffffffffffffffffffffffffff161461082f57600080fd5b600060089054906101000a900467ffffffffffffffff1667ffffffffffffffff16600e60003373ffffffffffffffffffffffffffffffffffffffff1673ffffffffffffffffffffffffffffffffffffffff16815260200190815260200160002060009054906101000a900467ffffffffffffffff1667ffffffffffffffff16106108b857600080fd5b601060009054906101000a900473ffffffffffffffffffffffffffffffffffffffff1673ffffffffffffffffffffffffffffffffffffffff166323b872dd333060008054906101000a900467ffffffffffffffff166040518463ffffffff1660e01b815260040161092b93929190611492565b602060405180830381600087803b15801561094557600080fd5b505af1158015610959573d6000803e3d6000fd5b505050506040513d601f19601f8201168201806040525081019061097d919061125d565b506000339050600f819080600181540180825580915050600190039060005260206000200160009091909190916101000a81548173ffffffffffffffffffffffffffffffffffffffff021916908373ffffffffffffffffffffffffffffffffffffffff1602179055506001600e60003373ffffffffffffffffffffffffffffffffffffffff1673ffffffffffffffffffffffffffffffffffffffff16815260200190815260200160002060008282829054906101000a900467ffffffffffffffff16610a4991906116a4565b92506101000a81548167ffffffffffffffff021916908367ffffffffffffffff1602179055508060078467ffffffffffffffff1660078110610a8e57610a8d61192a565b5b0160006101000a81548173ffffffffffffffffffffffffffffffffffffffff021916908373ffffffffffffffffffffffffffffffffffffffff1602179055508073ffffffffffffffffffffffffffffffffffffffff167f5436f9c7563d4b5be022d399b41f15519419cafca0f81c49d0cfbe78b925cbff84604051610b13919061158d565b60405180910390a26001915050919050565b60008054906101000a900467ffffffffffffffff1681565b60008060c8905060006007600060109054906101000a900467ffffffffffffffff1667ffffffffffffffff1660078110610b7a57610b7961192a565b5b0160009054906101000a900473ffffffffffffffffffffffffffffffffffffffff1690508073ffffffffffffffffffffffffffffffffffffffff163373ffffffffffffffffffffffffffffffffffffffff1614610c0c576040517f08c379a0000000000000000000000000000000000000000000000000000000008152600401610c0390611552565b60405180910390fd5b601060009054906101000a900473ffffffffffffffffffffffffffffffffffffffff1673ffffffffffffffffffffffffffffffffffffffff166323b872dd3083856040518463ffffffff1660e01b8152600401610c6b9392919061145b565b602060405180830381600087803b158015610c8557600080fd5b505af1158015610c99573d6000803e3d6000fd5b505050506040513d601f19601f82011682018060405250810190610cbd919061125d565b508073ffffffffffffffffffffffffffffffffffffffff167f88e10e2c5fc124e16534a2656bbb0d35e634b6b45da693604ba908af778b15c2600060109054906101000a900467ffffffffffffffff1684604051610d1c9291906115c3565b60405180910390a2610d2c610562565b50610d35610fe7565b50339250505090565b60078160078110610d4e57600080fd5b016000915054906101000a900473ffffffffffffffffffffffffffffffffffffffff1681565b600160009054906101000a900473ffffffffffffffffffffffffffffffffffffffff1673ffffffffffffffffffffffffffffffffffffffff163373ffffffffffffffffffffffffffffffffffffffff1614610dce57600080fd5b600260009054906101000a900473ffffffffffffffffffffffffffffffffffffffff1673ffffffffffffffffffffffffffffffffffffffff16635d3b1d30600454600260149054906101000a900467ffffffffffffffff166003600560009054906101000a900463ffffffff1660016040518663ffffffff1660e01b8152600401610e5d9594939291906114e4565b602060405180830381600087803b158015610e7757600080fd5b505af1158015610e8b573d6000803e3d6000fd5b505050506040513d601f19601f82011682018060405250810190610eaf91906112b7565b600681905550565b600160009054906101000a900473ffffffffffffffffffffffffffffffffffffffff1681565b60065481565b600f8181548110610ef357600080fd5b906000526020600020016000915054906101000a900473ffffffffffffffffffffffffffffffffffffffff1681565b601060009054906101000a900473ffffffffffffffffffffffffffffffffffffffff1681565b6001600682600081518110610f6057610f5f61192a565b5b6020026020010151610f72919061189b565b610f7c919061164e565b600560046101000a81548167ffffffffffffffff021916908367ffffffffffffffff160217905550600560049054906101000a900467ffffffffffffffff16600060106101000a81548167ffffffffffffffff021916908367ffffffffffffffff1602179055505050565b600080600090505b600f805490508110156110b4576000600e6000600f84815481106110165761101561192a565b5b9060005260206000200160009054906101000a900473ffffffffffffffffffffffffffffffffffffffff1673ffffffffffffffffffffffffffffffffffffffff1673ffffffffffffffffffffffffffffffffffffffff16815260200190815260200160002060006101000a81548167ffffffffffffffff021916908367ffffffffffffffff16021790555080806110ac90611821565b915050610fef565b50600760006110c391906110d8565b600f60006110d191906110eb565b6001905090565b5080600701906110e8919061110c565b50565b5080546000825590600052602060002090810190611109919061110c565b50565b5b8082111561112557600081600090555060010161110d565b5090565b600061113c61113784611611565b6115ec565b9050808382526020820190508285602086028201111561115f5761115e61198d565b5b60005b8581101561118f578161117588826111f1565b845260208401935060208301925050600181019050611162565b5050509392505050565b6000813590506111a8816119d6565b92915050565b600082601f8301126111c3576111c2611988565b5b81356111d3848260208601611129565b91505092915050565b6000815190506111eb816119ed565b92915050565b60008135905061120081611a04565b92915050565b60008151905061121581611a04565b92915050565b60008135905061122a81611a1b565b92915050565b60006020828403121561124657611245611997565b5b600061125484828501611199565b91505092915050565b60006020828403121561127357611272611997565b5b6000611281848285016111dc565b91505092915050565b6000602082840312156112a05761129f611997565b5b60006112ae848285016111f1565b91505092915050565b6000602082840312156112cd576112cc611997565b5b60006112db84828501611206565b91505092915050565b600080604083850312156112fb576112fa611997565b5b6000611309858286016111f1565b925050602083013567ffffffffffffffff81111561132a57611329611992565b5b611336858286016111ae565b9150509250929050565b60006020828403121561135657611355611997565b5b60006113648482850161121b565b91505092915050565b61137681611724565b82525050565b61138581611736565b82525050565b61139481611742565b82525050565b6113a3816117a8565b82525050565b60006113b660128361163d565b91506113c1826119ad565b602082019050919050565b6113d58161174c565b82525050565b6113e48161177a565b82525050565b6113f381611784565b82525050565b611402816117de565b82525050565b61141181611794565b82525050565b600060208201905061142c600083018461136d565b92915050565b6000604082019050611447600083018561136d565b611454602083018461136d565b9392505050565b6000606082019050611470600083018661136d565b61147d602083018561136d565b61148a60408301846113db565b949350505050565b60006060820190506114a7600083018661136d565b6114b4602083018561136d565b6114c160408301846113f9565b949350505050565b60006020820190506114de600083018461137c565b92915050565b600060a0820190506114f9600083018861138b565b6115066020830187611408565b61151360408301866113cc565b61152060608301856113ea565b61152d60808301846113ea565b9695505050505050565b600060208201905061154c600083018461139a565b92915050565b6000602082019050818103600083015261156b816113a9565b9050919050565b600060208201905061158760008301846113db565b92915050565b60006020820190506115a260008301846113f9565b92915050565b60006020820190506115bd6000830184611408565b92915050565b60006040820190506115d86000830185611408565b6115e560208301846113db565b9392505050565b60006115f6611607565b905061160282826117f0565b919050565b6000604051905090565b600067ffffffffffffffff82111561162c5761162b611959565b5b602082029050602081019050919050565b600082825260208201905092915050565b60006116598261177a565b91506116648361177a565b9250827fffffffffffffffffffffffffffffffffffffffffffffffffffffffffffffffff03821115611699576116986118cc565b5b828201905092915050565b60006116af82611794565b91506116ba83611794565b92508267ffffffffffffffff038211156116d7576116d66118cc565b5b828201905092915050565b60006116ed82611794565b91506116f883611794565b92508167ffffffffffffffff0483118215151615611719576117186118cc565b5b828202905092915050565b600061172f8261175a565b9050919050565b60008115159050919050565b6000819050919050565b600061ffff82169050919050565b600073ffffffffffffffffffffffffffffffffffffffff82169050919050565b6000819050919050565b600063ffffffff82169050919050565b600067ffffffffffffffff82169050919050565b60006117b3826117ba565b9050919050565b60006117c5826117cc565b9050919050565b60006117d78261175a565b9050919050565b60006117e982611794565b9050919050565b6117f98261199c565b810181811067ffffffffffffffff8211171561181857611817611959565b5b80604052505050565b600061182c8261177a565b91507fffffffffffffffffffffffffffffffffffffffffffffffffffffffffffffffff82141561185f5761185e6118cc565b5b600182019050919050565b600061187582611794565b915067ffffffffffffffff8214156118905761188f6118cc565b5b600182019050919050565b60006118a68261177a565b91506118b18361177a565b9250826118c1576118c06118fb565b5b828206905092915050565b7f4e487b7100000000000000000000000000000000000000000000000000000000600052601160045260246000fd5b7f4e487b7100000000000000000000000000000000000000000000000000000000600052601260045260246000fd5b7f4e487b7100000000000000000000000000000000000000000000000000000000600052603260045260246000fd5b7f4e487b7100000000000000000000000000000000000000000000000000000000600052604160045260246000fd5b600080fd5b600080fd5b600080fd5b600080fd5b6000601f19601f8301169050919050565b7f596f7520617265206e6f742077696e6e65720000000000000000000000000000600082015250565b6119df81611724565b81146119ea57600080fd5b50565b6119f681611736565b8114611a0157600080fd5b50565b611a0d8161177a565b8114611a1857600080fd5b50565b611a2481611794565b8114611a2f57600080fd5b5056fea264697066735822122056b79e6214f5593132de2eb28ca9e9136c77512e7effb93ee7b2c440e6491be064736f6c63430008070033",
  "linkReferences": {},
  "deployedLinkReferences": {}
}