{
  "_format": "hh-sol-artifact-1",
  "contractName": "Lottery",
  "sourceName": "src/backend/contracts/Lottery.sol",
  "abi": [
    {
      "inputs": [
        {
          "internalType": "uint64",
          "name": "subscriptionId",
          "type": "uint64"
        },
        {
          "internalType": "contract LTRToken",
          "name": "_token",
          "type": "address"
        }
      ],
      "stateMutability": "nonpayable",
      "type": "constructor"
    },
    {
      "inputs": [
        {
          "internalType": "address",
          "name": "have",
          "type": "address"
        },
        {
          "internalType": "address",
          "name": "want",
          "type": "address"
        }
      ],
      "name": "OnlyCoordinatorCanFulfill",
      "type": "error"
    },
    {
      "anonymous": false,
      "inputs": [
        {
          "indexed": true,
          "internalType": "address",
          "name": "_winner",
          "type": "address"
        },
        {
          "indexed": false,
          "internalType": "uint64",
          "name": "_ticketID",
          "type": "uint64"
        },
        {
          "indexed": false,
          "internalType": "uint256",
          "name": "_amount",
          "type": "uint256"
        }
      ],
      "name": "LotteryAmountPaid",
      "type": "event"
    },
    {
      "anonymous": false,
      "inputs": [
        {
          "indexed": true,
          "internalType": "address",
          "name": "_purchaser",
          "type": "address"
        },
        {
          "indexed": false,
          "internalType": "uint256",
          "name": "_ticketID",
          "type": "uint256"
        }
      ],
      "name": "LotteryTicketPurchased",
      "type": "event"
    },
    {
      "stateMutability": "payable",
      "type": "fallback"
    },
    {
      "inputs": [
        {
          "internalType": "uint64",
          "name": "_ticket",
          "type": "uint64"
        }
      ],
      "name": "buyTicket",
      "outputs": [
        {
          "internalType": "bool",
          "name": "",
          "type": "bool"
        }
      ],
      "stateMutability": "nonpayable",
      "type": "function"
    },
    {
      "inputs": [],
      "name": "claimReward",
      "outputs": [
        {
          "internalType": "address",
          "name": "",
          "type": "address"
        }
      ],
      "stateMutability": "nonpayable",
      "type": "function"
    },
    {
      "inputs": [],
      "name": "getCurrentPrize",
      "outputs": [
        {
          "internalType": "uint256",
          "name": "",
          "type": "uint256"
        }
      ],
      "stateMutability": "view",
      "type": "function"
    },
    {
      "inputs": [
        {
          "internalType": "address",
          "name": "_player",
          "type": "address"
        }
      ],
      "name": "getTicketsPurchased",
      "outputs": [
        {
          "internalType": "uint64",
          "name": "",
          "type": "uint64"
        }
      ],
      "stateMutability": "view",
      "type": "function"
    },
    {
      "inputs": [],
      "name": "getWinningNumber",
      "outputs": [
        {
          "internalType": "uint64",
          "name": "",
          "type": "uint64"
        }
      ],
      "stateMutability": "view",
      "type": "function"
    },
    {
      "inputs": [
        {
          "internalType": "uint256",
          "name": "",
          "type": "uint256"
        }
      ],
      "name": "players",
      "outputs": [
        {
          "internalType": "address",
          "name": "",
          "type": "address"
        }
      ],
      "stateMutability": "view",
      "type": "function"
    },
    {
      "inputs": [],
      "name": "prize",
      "outputs": [
        {
          "internalType": "uint256",
          "name": "",
          "type": "uint256"
        }
      ],
      "stateMutability": "view",
      "type": "function"
    },
    {
      "inputs": [
        {
          "internalType": "uint256",
          "name": "requestId",
          "type": "uint256"
        },
        {
          "internalType": "uint256[]",
          "name": "randomWords",
          "type": "uint256[]"
        }
      ],
      "name": "rawFulfillRandomWords",
      "outputs": [],
      "stateMutability": "nonpayable",
      "type": "function"
    },
    {
      "inputs": [],
      "name": "requestRandomWords",
      "outputs": [],
      "stateMutability": "nonpayable",
      "type": "function"
    },
    {
      "inputs": [],
      "name": "returnReward",
      "outputs": [
        {
          "internalType": "uint256",
          "name": "",
          "type": "uint256"
        }
      ],
      "stateMutability": "nonpayable",
      "type": "function"
    },
    {
      "inputs": [],
      "name": "s_owner",
      "outputs": [
        {
          "internalType": "address",
          "name": "",
          "type": "address"
        }
      ],
      "stateMutability": "view",
      "type": "function"
    },
    {
      "inputs": [],
      "name": "s_randomWords",
      "outputs": [
        {
          "internalType": "uint64",
          "name": "",
          "type": "uint64"
        }
      ],
      "stateMutability": "view",
      "type": "function"
    },
    {
      "inputs": [],
      "name": "s_requestId",
      "outputs": [
        {
          "internalType": "uint256",
          "name": "",
          "type": "uint256"
        }
      ],
      "stateMutability": "view",
      "type": "function"
    },
    {
      "inputs": [],
      "name": "s_ticketMax",
      "outputs": [
        {
          "internalType": "uint64",
          "name": "",
          "type": "uint64"
        }
      ],
      "stateMutability": "view",
      "type": "function"
    },
    {
      "inputs": [],
      "name": "s_ticketPrice",
      "outputs": [
        {
          "internalType": "uint64",
          "name": "",
          "type": "uint64"
        }
      ],
      "stateMutability": "view",
      "type": "function"
    },
    {
      "inputs": [
        {
          "internalType": "uint256",
          "name": "",
          "type": "uint256"
        }
      ],
      "name": "ticketOwner",
      "outputs": [
        {
          "internalType": "address",
          "name": "",
          "type": "address"
        }
      ],
      "stateMutability": "view",
      "type": "function"
    },
    {
      "inputs": [
        {
          "internalType": "address",
          "name": "",
          "type": "address"
        }
      ],
      "name": "ticketsBought",
      "outputs": [
        {
          "internalType": "uint64",
          "name": "",
          "type": "uint64"
        }
      ],
      "stateMutability": "view",
      "type": "function"
    },
    {
      "inputs": [],
      "name": "token",
      "outputs": [
        {
          "internalType": "contract LTRToken",
          "name": "",
          "type": "address"
        }
      ],
      "stateMutability": "view",
      "type": "function"
    },
    {
      "inputs": [],
      "name": "winningNumber",
      "outputs": [
        {
          "internalType": "uint64",
          "name": "",
          "type": "uint64"
        }
      ],
      "stateMutability": "view",
      "type": "function"
    },
    {
      "stateMutability": "payable",
      "type": "receive"
    }
  ],
  "bytecode": "0x60a060405260326000806101000a81548167ffffffffffffffff021916908367ffffffffffffffff1602179055506006600060086101000a81548167ffffffffffffffff021916908367ffffffffffffffff160217905550736168499c0cffcacd319c818142124b7a15e857ab600460006101000a81548173ffffffffffffffffffffffffffffffffffffffff021916908373ffffffffffffffffffffffffffffffffffffffff1602179055507fd89b2bf150e3b9e13446986e571fb9cab24b13cea0a43ea20a6049a85cc807cc60001b600555620186a0600660006101000a81548163ffffffff021916908363ffffffff1602179055503480156200010457600080fd5b50604051620020973803806200209783398181016040528101906200012a9190620003cd565b600460009054906101000a900473ffffffffffffffffffffffffffffffffffffffff168073ffffffffffffffffffffffffffffffffffffffff1660808173ffffffffffffffffffffffffffffffffffffffff1660601b8152505050600460009054906101000a900473ffffffffffffffffffffffffffffffffffffffff16600360006101000a81548173ffffffffffffffffffffffffffffffffffffffff021916908373ffffffffffffffffffffffffffffffffffffffff16021790555080601160006101000a81548173ffffffffffffffffffffffffffffffffffffffff021916908373ffffffffffffffffffffffffffffffffffffffff160217905550601160009054906101000a900473ffffffffffffffffffffffffffffffffffffffff1673ffffffffffffffffffffffffffffffffffffffff166323b872dd3330620f42406040518463ffffffff1660e01b81526004016200028d9392919062000436565b602060405180830381600087803b158015620002a857600080fd5b505af1158015620002bd573d6000803e3d6000fd5b505050506040513d601f19601f82011682018060405250810190620002e391906200039b565b5033600160006101000a81548173ffffffffffffffffffffffffffffffffffffffff021916908373ffffffffffffffffffffffffffffffffffffffff16021790555081600360146101000a81548167ffffffffffffffff021916908367ffffffffffffffff16021790555050506200054c565b6000815190506200036781620004fe565b92915050565b6000815190506200037e8162000518565b92915050565b600081519050620003958162000532565b92915050565b600060208284031215620003b457620003b3620004f9565b5b6000620003c48482850162000356565b91505092915050565b60008060408385031215620003e757620003e6620004f9565b5b6000620003f78582860162000384565b92505060206200040a858286016200036d565b9150509250929050565b6200041f8162000473565b82525050565b6200043081620004e5565b82525050565b60006060820190506200044d600083018662000414565b6200045c602083018562000414565b6200046b604083018462000425565b949350505050565b60006200048082620004a7565b9050919050565b60008115159050919050565b6000620004a08262000473565b9050919050565b600073ffffffffffffffffffffffffffffffffffffffff82169050919050565b6000819050919050565b600067ffffffffffffffff82169050919050565b6000620004f282620004c7565b9050919050565b600080fd5b620005098162000487565b81146200051557600080fd5b50565b620005238162000493565b81146200052f57600080fd5b50565b6200053d81620004d1565b81146200054957600080fd5b50565b60805160601c611b25620005726000396000818161051201526105660152611b256000f3fe6080604052600436106101185760003560e01c80638b0b9ed4116100a0578063e397824011610064578063e3978240146103b0578063e3ac5d26146103db578063e89e106a14610406578063f71d96cb14610431578063fc0c546a1461046e5761011f565b80638b0b9ed4146102db578063b7f2067014610306578063b88a802f14610331578063c2ff12fc1461035c578063e0c86289146103995761011f565b80634664611e116100e75780634664611e146101e0578063634235611461020b57806382f23ba31461023657806384bd32641461026157806388d733b51461029e5761011f565b80631c1d91ab146101245780631d3c7b91146101615780631fe543e31461018c57806340338433146101b55761011f565b3661011f57005b600080fd5b34801561013057600080fd5b5061014b600480360381019061014691906112ed565b610499565b6040516101589190611665565b60405180910390f35b34801561016d57600080fd5b506101766104f6565b6040516101839190611665565b60405180910390f35b34801561019857600080fd5b506101b360048036038101906101ae91906113a1565b610510565b005b3480156101c157600080fd5b506101ca6105d0565b6040516101d7919061162f565b60405180910390f35b3480156101ec57600080fd5b506101f56105da565b6040516102029190611665565b60405180910390f35b34801561021757600080fd5b506102206105f4565b60405161022d9190611665565b60405180910390f35b34801561024257600080fd5b5061024b61060e565b604051610258919061162f565b60405180910390f35b34801561026d57600080fd5b50610288600480360381019061028391906112ed565b6107e3565b6040516102959190611665565b60405180910390f35b3480156102aa57600080fd5b506102c560048036038101906102c091906113fd565b61080a565b6040516102d29190611586565b60405180910390f35b3480156102e757600080fd5b506102f0610beb565b6040516102fd9190611665565b60405180910390f35b34801561031257600080fd5b5061031b610c08565b6040516103289190611665565b60405180910390f35b34801561033d57600080fd5b50610346610c20565b60405161035391906114d4565b60405180910390f35b34801561036857600080fd5b50610383600480360381019061037e9190611347565b610e1e565b60405161039091906114d4565b60405180910390f35b3480156103a557600080fd5b506103ae610e54565b005b3480156103bc57600080fd5b506103c5610f3d565b6040516103d291906114d4565b60405180910390f35b3480156103e757600080fd5b506103f0610f63565b6040516103fd919061162f565b60405180910390f35b34801561041257600080fd5b5061041b610f69565b604051610428919061162f565b60405180910390f35b34801561043d57600080fd5b5061045860048036038101906104539190611347565b610f6f565b60405161046591906114d4565b60405180910390f35b34801561047a57600080fd5b50610483610fae565b60405161049091906115f4565b60405180910390f35b6000600f60008373ffffffffffffffffffffffffffffffffffffffff1673ffffffffffffffffffffffffffffffffffffffff16815260200190815260200160002060009054906101000a900467ffffffffffffffff169050919050565b600660049054906101000a900467ffffffffffffffff1681565b7f000000000000000000000000000000000000000000000000000000000000000073ffffffffffffffffffffffffffffffffffffffff163373ffffffffffffffffffffffffffffffffffffffff16146105c257337f00000000000000000000000000000000000000000000000000000000000000006040517f1cf993f40000000000000000000000000000000000000000000000000000000081526004016105b99291906114ef565b60405180910390fd5b6105cc8282610fd4565b5050565b6000600254905090565b600060109054906101000a900467ffffffffffffffff1681565b600060089054906101000a900467ffffffffffffffff1681565b6000806000905060005b60078167ffffffffffffffff1610156107075760008054906101000a900467ffffffffffffffff16600f600060088467ffffffffffffffff1660078110610662576106616119e7565b5b0160009054906101000a900473ffffffffffffffffffffffffffffffffffffffff1673ffffffffffffffffffffffffffffffffffffffff1673ffffffffffffffffffffffffffffffffffffffff16815260200190815260200160002060009054906101000a900467ffffffffffffffff166106dd919061179f565b67ffffffffffffffff16826106f2919061170b565b915080806106ff90611927565b915050610618565b50601160009054906101000a900473ffffffffffffffffffffffffffffffffffffffff1673ffffffffffffffffffffffffffffffffffffffff166323b872dd30600160009054906101000a900473ffffffffffffffffffffffffffffffffffffffff16846040518463ffffffff1660e01b815260040161078993929190611518565b602060405180830381600087803b1580156107a357600080fd5b505af11580156107b7573d6000803e3d6000fd5b505050506040513d601f19601f820116820180604052508101906107db919061131a565b508091505090565b600f6020528060005260406000206000915054906101000a900467ffffffffffffffff1681565b6000808267ffffffffffffffff1611801561085a57506001600060089054906101000a900467ffffffffffffffff166108439190611761565b67ffffffffffffffff168267ffffffffffffffff16105b61086357600080fd5b600073ffffffffffffffffffffffffffffffffffffffff1660088367ffffffffffffffff1660078110610899576108986119e7565b5b0160009054906101000a900473ffffffffffffffffffffffffffffffffffffffff1673ffffffffffffffffffffffffffffffffffffffff16146108db57600080fd5b600060089054906101000a900467ffffffffffffffff1667ffffffffffffffff16600f60003373ffffffffffffffffffffffffffffffffffffffff1673ffffffffffffffffffffffffffffffffffffffff16815260200190815260200160002060009054906101000a900467ffffffffffffffff1667ffffffffffffffff161061096457600080fd5b601160009054906101000a900473ffffffffffffffffffffffffffffffffffffffff1673ffffffffffffffffffffffffffffffffffffffff166323b872dd333060008054906101000a900467ffffffffffffffff166040518463ffffffff1660e01b81526004016109d79392919061154f565b602060405180830381600087803b1580156109f157600080fd5b505af1158015610a05573d6000803e3d6000fd5b505050506040513d601f19601f82011682018060405250810190610a29919061131a565b50603260026000828254610a3d919061170b565b9250508190555060003390506010819080600181540180825580915050600190039060005260206000200160009091909190916101000a81548173ffffffffffffffffffffffffffffffffffffffff021916908373ffffffffffffffffffffffffffffffffffffffff1602179055506001600f60003373ffffffffffffffffffffffffffffffffffffffff1673ffffffffffffffffffffffffffffffffffffffff16815260200190815260200160002060008282829054906101000a900467ffffffffffffffff16610b0f9190611761565b92506101000a81548167ffffffffffffffff021916908367ffffffffffffffff1602179055508060088467ffffffffffffffff1660078110610b5457610b536119e7565b5b0160006101000a81548173ffffffffffffffffffffffffffffffffffffffff021916908373ffffffffffffffffffffffffffffffffffffffff1602179055508073ffffffffffffffffffffffffffffffffffffffff167f5436f9c7563d4b5be022d399b41f15519419cafca0f81c49d0cfbe78b925cbff84604051610bd9919061164a565b60405180910390a26001915050919050565b60008060109054906101000a900467ffffffffffffffff16905090565b60008054906101000a900467ffffffffffffffff1681565b6000806008600060109054906101000a900467ffffffffffffffff1667ffffffffffffffff1660078110610c5757610c566119e7565b5b0160009054906101000a900473ffffffffffffffffffffffffffffffffffffffff1690508073ffffffffffffffffffffffffffffffffffffffff163373ffffffffffffffffffffffffffffffffffffffff1614610ce9576040517f08c379a0000000000000000000000000000000000000000000000000000000008152600401610ce09061160f565b60405180910390fd5b601160009054906101000a900473ffffffffffffffffffffffffffffffffffffffff1673ffffffffffffffffffffffffffffffffffffffff166323b872dd30836002546040518463ffffffff1660e01b8152600401610d4a93929190611518565b602060405180830381600087803b158015610d6457600080fd5b505af1158015610d78573d6000803e3d6000fd5b505050506040513d601f19601f82011682018060405250810190610d9c919061131a565b508073ffffffffffffffffffffffffffffffffffffffff167f88e10e2c5fc124e16534a2656bbb0d35e634b6b45da693604ba908af778b15c2600060109054906101000a900467ffffffffffffffff16600254604051610dfd929190611680565b60405180910390a2610e0d61060e565b50610e16611073565b503391505090565b60088160078110610e2e57600080fd5b016000915054906101000a900473ffffffffffffffffffffffffffffffffffffffff1681565b600360009054906101000a900473ffffffffffffffffffffffffffffffffffffffff1673ffffffffffffffffffffffffffffffffffffffff16635d3b1d30600554600360149054906101000a900467ffffffffffffffff166003600660009054906101000a900463ffffffff1660016040518663ffffffff1660e01b8152600401610ee39594939291906115a1565b602060405180830381600087803b158015610efd57600080fd5b505af1158015610f11573d6000803e3d6000fd5b505050506040513d601f19601f82011682018060405250810190610f359190611374565b600781905550565b600160009054906101000a900473ffffffffffffffffffffffffffffffffffffffff1681565b60025481565b60075481565b60108181548110610f7f57600080fd5b906000526020600020016000915054906101000a900473ffffffffffffffffffffffffffffffffffffffff1681565b601160009054906101000a900473ffffffffffffffffffffffffffffffffffffffff1681565b6001600682600081518110610fec57610feb6119e7565b5b6020026020010151610ffe9190611958565b611008919061170b565b600660046101000a81548167ffffffffffffffff021916908367ffffffffffffffff160217905550600660049054906101000a900467ffffffffffffffff16600060106101000a81548167ffffffffffffffff021916908367ffffffffffffffff1602179055505050565b600080600090505b601080549050811015611140576000600f6000601084815481106110a2576110a16119e7565b5b9060005260206000200160009054906101000a900473ffffffffffffffffffffffffffffffffffffffff1673ffffffffffffffffffffffffffffffffffffffff1673ffffffffffffffffffffffffffffffffffffffff16815260200190815260200160002060006101000a81548167ffffffffffffffff021916908367ffffffffffffffff1602179055508080611138906118de565b91505061107b565b506008600061114f9190611195565b6010600061115d91906111a8565b60008060106101000a81548167ffffffffffffffff021916908367ffffffffffffffff16021790555060006002819055506001905090565b5080600701906111a591906111c9565b50565b50805460008255906000526020600020908101906111c691906111c9565b50565b5b808211156111e25760008160009055506001016111ca565b5090565b60006111f96111f4846116ce565b6116a9565b9050808382526020820190508285602086028201111561121c5761121b611a4a565b5b60005b8581101561124c578161123288826112ae565b84526020840193506020830192505060018101905061121f565b5050509392505050565b60008135905061126581611a93565b92915050565b600082601f8301126112805761127f611a45565b5b81356112908482602086016111e6565b91505092915050565b6000815190506112a881611aaa565b92915050565b6000813590506112bd81611ac1565b92915050565b6000815190506112d281611ac1565b92915050565b6000813590506112e781611ad8565b92915050565b60006020828403121561130357611302611a54565b5b600061131184828501611256565b91505092915050565b6000602082840312156113305761132f611a54565b5b600061133e84828501611299565b91505092915050565b60006020828403121561135d5761135c611a54565b5b600061136b848285016112ae565b91505092915050565b60006020828403121561138a57611389611a54565b5b6000611398848285016112c3565b91505092915050565b600080604083850312156113b8576113b7611a54565b5b60006113c6858286016112ae565b925050602083013567ffffffffffffffff8111156113e7576113e6611a4f565b5b6113f38582860161126b565b9150509250929050565b60006020828403121561141357611412611a54565b5b6000611421848285016112d8565b91505092915050565b611433816117e1565b82525050565b611442816117f3565b82525050565b611451816117ff565b82525050565b61146081611865565b82525050565b60006114736012836116fa565b915061147e82611a6a565b602082019050919050565b61149281611809565b82525050565b6114a181611837565b82525050565b6114b081611841565b82525050565b6114bf8161189b565b82525050565b6114ce81611851565b82525050565b60006020820190506114e9600083018461142a565b92915050565b6000604082019050611504600083018561142a565b611511602083018461142a565b9392505050565b600060608201905061152d600083018661142a565b61153a602083018561142a565b6115476040830184611498565b949350505050565b6000606082019050611564600083018661142a565b611571602083018561142a565b61157e60408301846114b6565b949350505050565b600060208201905061159b6000830184611439565b92915050565b600060a0820190506115b66000830188611448565b6115c360208301876114c5565b6115d06040830186611489565b6115dd60608301856114a7565b6115ea60808301846114a7565b9695505050505050565b60006020820190506116096000830184611457565b92915050565b6000602082019050818103600083015261162881611466565b9050919050565b60006020820190506116446000830184611498565b92915050565b600060208201905061165f60008301846114b6565b92915050565b600060208201905061167a60008301846114c5565b92915050565b600060408201905061169560008301856114c5565b6116a26020830184611498565b9392505050565b60006116b36116c4565b90506116bf82826118ad565b919050565b6000604051905090565b600067ffffffffffffffff8211156116e9576116e8611a16565b5b602082029050602081019050919050565b600082825260208201905092915050565b600061171682611837565b915061172183611837565b9250827fffffffffffffffffffffffffffffffffffffffffffffffffffffffffffffffff0382111561175657611755611989565b5b828201905092915050565b600061176c82611851565b915061177783611851565b92508267ffffffffffffffff0382111561179457611793611989565b5b828201905092915050565b60006117aa82611851565b91506117b583611851565b92508167ffffffffffffffff04831182151516156117d6576117d5611989565b5b828202905092915050565b60006117ec82611817565b9050919050565b60008115159050919050565b6000819050919050565b600061ffff82169050919050565b600073ffffffffffffffffffffffffffffffffffffffff82169050919050565b6000819050919050565b600063ffffffff82169050919050565b600067ffffffffffffffff82169050919050565b600061187082611877565b9050919050565b600061188282611889565b9050919050565b600061189482611817565b9050919050565b60006118a682611851565b9050919050565b6118b682611a59565b810181811067ffffffffffffffff821117156118d5576118d4611a16565b5b80604052505050565b60006118e982611837565b91507fffffffffffffffffffffffffffffffffffffffffffffffffffffffffffffffff82141561191c5761191b611989565b5b600182019050919050565b600061193282611851565b915067ffffffffffffffff82141561194d5761194c611989565b5b600182019050919050565b600061196382611837565b915061196e83611837565b92508261197e5761197d6119b8565b5b828206905092915050565b7f4e487b7100000000000000000000000000000000000000000000000000000000600052601160045260246000fd5b7f4e487b7100000000000000000000000000000000000000000000000000000000600052601260045260246000fd5b7f4e487b7100000000000000000000000000000000000000000000000000000000600052603260045260246000fd5b7f4e487b7100000000000000000000000000000000000000000000000000000000600052604160045260246000fd5b600080fd5b600080fd5b600080fd5b600080fd5b6000601f19601f8301169050919050565b7f596f7520617265206e6f742077696e6e65720000000000000000000000000000600082015250565b611a9c816117e1565b8114611aa757600080fd5b50565b611ab3816117f3565b8114611abe57600080fd5b50565b611aca81611837565b8114611ad557600080fd5b50565b611ae181611851565b8114611aec57600080fd5b5056fea26469706673582212209b787dd33ef7758fa96f671e7b78b6f986f7d9d2921a3064ca52deac15709e9a64736f6c63430008070033",
  "linkReferences": {},
  "deployedLinkReferences": {}
}