{
  "_format": "hh-sol-artifact-1",
  "contractName": "THVTokenUpgradeable",
  "sourceName": "src/backend/contracts/THVTokenUpgradeable.sol",
  "abi": [
    {
      "anonymous": false,
      "inputs": [
        {
          "indexed": true,
          "internalType": "address",
          "name": "owner",
          "type": "address"
        },
        {
          "indexed": true,
          "internalType": "address",
          "name": "spender",
          "type": "address"
        },
        {
          "indexed": false,
          "internalType": "uint256",
          "name": "value",
          "type": "uint256"
        }
      ],
      "name": "Approval",
      "type": "event"
    },
    {
      "anonymous": false,
      "inputs": [
        {
          "indexed": false,
          "internalType": "uint8",
          "name": "version",
          "type": "uint8"
        }
      ],
      "name": "Initialized",
      "type": "event"
    },
    {
      "anonymous": false,
      "inputs": [
        {
          "indexed": true,
          "internalType": "address",
          "name": "from",
          "type": "address"
        },
        {
          "indexed": true,
          "internalType": "address",
          "name": "to",
          "type": "address"
        },
        {
          "indexed": false,
          "internalType": "uint256",
          "name": "value",
          "type": "uint256"
        }
      ],
      "name": "Transfer",
      "type": "event"
    },
    {
      "inputs": [
        {
          "internalType": "address",
          "name": "owner",
          "type": "address"
        },
        {
          "internalType": "address",
          "name": "spender",
          "type": "address"
        }
      ],
      "name": "allowance",
      "outputs": [
        {
          "internalType": "uint256",
          "name": "",
          "type": "uint256"
        }
      ],
      "stateMutability": "view",
      "type": "function"
    },
    {
      "inputs": [
        {
          "internalType": "address",
          "name": "spender",
          "type": "address"
        },
        {
          "internalType": "uint256",
          "name": "amount",
          "type": "uint256"
        }
      ],
      "name": "approve",
      "outputs": [
        {
          "internalType": "bool",
          "name": "",
          "type": "bool"
        }
      ],
      "stateMutability": "nonpayable",
      "type": "function"
    },
    {
      "inputs": [
        {
          "internalType": "address",
          "name": "account",
          "type": "address"
        }
      ],
      "name": "balanceOf",
      "outputs": [
        {
          "internalType": "uint256",
          "name": "",
          "type": "uint256"
        }
      ],
      "stateMutability": "view",
      "type": "function"
    },
    {
      "inputs": [],
      "name": "decimals",
      "outputs": [
        {
          "internalType": "uint8",
          "name": "",
          "type": "uint8"
        }
      ],
      "stateMutability": "view",
      "type": "function"
    },
    {
      "inputs": [
        {
          "internalType": "address",
          "name": "spender",
          "type": "address"
        },
        {
          "internalType": "uint256",
          "name": "subtractedValue",
          "type": "uint256"
        }
      ],
      "name": "decreaseAllowance",
      "outputs": [
        {
          "internalType": "bool",
          "name": "",
          "type": "bool"
        }
      ],
      "stateMutability": "nonpayable",
      "type": "function"
    },
    {
      "inputs": [
        {
          "internalType": "address",
          "name": "spender",
          "type": "address"
        },
        {
          "internalType": "uint256",
          "name": "addedValue",
          "type": "uint256"
        }
      ],
      "name": "increaseAllowance",
      "outputs": [
        {
          "internalType": "bool",
          "name": "",
          "type": "bool"
        }
      ],
      "stateMutability": "nonpayable",
      "type": "function"
    },
    {
      "inputs": [],
      "name": "initialize",
      "outputs": [],
      "stateMutability": "nonpayable",
      "type": "function"
    },
    {
      "inputs": [],
      "name": "name",
      "outputs": [
        {
          "internalType": "string",
          "name": "",
          "type": "string"
        }
      ],
      "stateMutability": "view",
      "type": "function"
    },
    {
      "inputs": [
        {
          "internalType": "address",
          "name": "owner",
          "type": "address"
        },
        {
          "internalType": "address",
          "name": "spender",
          "type": "address"
        },
        {
          "internalType": "uint256",
          "name": "amount",
          "type": "uint256"
        }
      ],
      "name": "setApproval",
      "outputs": [],
      "stateMutability": "nonpayable",
      "type": "function"
    },
    {
      "inputs": [],
      "name": "symbol",
      "outputs": [
        {
          "internalType": "string",
          "name": "",
          "type": "string"
        }
      ],
      "stateMutability": "view",
      "type": "function"
    },
    {
      "inputs": [],
      "name": "totalSupply",
      "outputs": [
        {
          "internalType": "uint256",
          "name": "",
          "type": "uint256"
        }
      ],
      "stateMutability": "view",
      "type": "function"
    },
    {
      "inputs": [
        {
          "internalType": "address",
          "name": "to",
          "type": "address"
        },
        {
          "internalType": "uint256",
          "name": "amount",
          "type": "uint256"
        }
      ],
      "name": "transfer",
      "outputs": [
        {
          "internalType": "bool",
          "name": "",
          "type": "bool"
        }
      ],
      "stateMutability": "nonpayable",
      "type": "function"
    },
    {
      "inputs": [
        {
          "internalType": "address",
          "name": "from",
          "type": "address"
        },
        {
          "internalType": "address",
          "name": "to",
          "type": "address"
        },
        {
          "internalType": "uint256",
          "name": "amount",
          "type": "uint256"
        }
      ],
      "name": "transferFrom",
      "outputs": [
        {
          "internalType": "bool",
          "name": "",
          "type": "bool"
        }
      ],
      "stateMutability": "nonpayable",
      "type": "function"
    }
  ],
  "bytecode": "0x608060405234801561001057600080fd5b506119a4806100206000396000f3fe608060405234801561001057600080fd5b50600436106100cf5760003560e01c8063395093511161008c57806395d89b411161006657806395d89b4114610214578063a457c2d714610232578063a9059cbb14610262578063dd62ed3e14610292576100cf565b806339509351146101aa57806370a08231146101da5780638129fc1c1461020a576100cf565b806306fdde03146100d4578063095ea7b3146100f25780630c9fcec91461012257806318160ddd1461013e57806323b872dd1461015c578063313ce5671461018c575b600080fd5b6100dc6102c2565b6040516100e9919061132c565b60405180910390f35b61010c600480360381019061010791906110e3565b610354565b60405161011991906112f6565b60405180910390f35b61013c60048036038101906101379190611090565b610377565b005b610146610387565b604051610153919061148e565b60405180910390f35b61017660048036038101906101719190611090565b610391565b60405161018391906112f6565b60405180910390f35b6101946103c0565b6040516101a191906114a9565b60405180910390f35b6101c460048036038101906101bf91906110e3565b6103c9565b6040516101d191906112f6565b60405180910390f35b6101f460048036038101906101ef9190611023565b610400565b604051610201919061148e565b60405180910390f35b610212610449565b005b61021c610564565b604051610229919061132c565b60405180910390f35b61024c600480360381019061024791906110e3565b6105f6565b60405161025991906112f6565b60405180910390f35b61027c600480360381019061027791906110e3565b61066d565b60405161028991906112f6565b60405180910390f35b6102ac60048036038101906102a79190611050565b610690565b6040516102b9919061148e565b60405180910390f35b6060603680546102d1906115d0565b80601f01602080910402602001604051908101604052809291908181526020018280546102fd906115d0565b801561034a5780601f1061031f5761010080835404028352916020019161034a565b820191906000526020600020905b81548152906001019060200180831161032d57829003601f168201915b5050505050905090565b60008061035f610717565b905061036c81858561071f565b600191505092915050565b61038283838361071f565b505050565b6000603554905090565b60008061039c610717565b90506103a98582856108ea565b6103b4858585610976565b60019150509392505050565b60006012905090565b6000806103d4610717565b90506103f58185856103e68589610690565b6103f091906114e0565b61071f565b600191505092915050565b6000603360008373ffffffffffffffffffffffffffffffffffffffff1673ffffffffffffffffffffffffffffffffffffffff168152602001908152602001600020549050919050565b60006104556001610bfa565b90508015610479576001600060016101000a81548160ff0219169083151502179055505b6104ed6040518060400160405280600881526020017f544856546f6b656e0000000000000000000000000000000000000000000000008152506040518060400160405280600381526020017f5448560000000000000000000000000000000000000000000000000000000000815250610cea565b6105086104f8610717565b69021e19e0c9bab2400000610d47565b80156105615760008060016101000a81548160ff0219169083151502179055507f7f26b83ff96e1f2b6a682f133852f6798a09c465da95921460cefb384740249860016040516105589190611311565b60405180910390a15b50565b606060378054610573906115d0565b80601f016020809104026020016040519081016040528092919081815260200182805461059f906115d0565b80156105ec5780601f106105c1576101008083540402835291602001916105ec565b820191906000526020600020905b8154815290600101906020018083116105cf57829003601f168201915b5050505050905090565b600080610601610717565b9050600061060f8286610690565b905083811015610654576040517f08c379a000000000000000000000000000000000000000000000000000000000815260040161064b9061144e565b60405180910390fd5b610661828686840361071f565b60019250505092915050565b600080610678610717565b9050610685818585610976565b600191505092915050565b6000603460008473ffffffffffffffffffffffffffffffffffffffff1673ffffffffffffffffffffffffffffffffffffffff16815260200190815260200160002060008373ffffffffffffffffffffffffffffffffffffffff1673ffffffffffffffffffffffffffffffffffffffff16815260200190815260200160002054905092915050565b600033905090565b600073ffffffffffffffffffffffffffffffffffffffff168373ffffffffffffffffffffffffffffffffffffffff16141561078f576040517f08c379a00000000000000000000000000000000000000000000000000000000081526004016107869061140e565b60405180910390fd5b600073ffffffffffffffffffffffffffffffffffffffff168273ffffffffffffffffffffffffffffffffffffffff1614156107ff576040517f08c379a00000000000000000000000000000000000000000000000000000000081526004016107f69061136e565b60405180910390fd5b80603460008573ffffffffffffffffffffffffffffffffffffffff1673ffffffffffffffffffffffffffffffffffffffff16815260200190815260200160002060008473ffffffffffffffffffffffffffffffffffffffff1673ffffffffffffffffffffffffffffffffffffffff168152602001908152602001600020819055508173ffffffffffffffffffffffffffffffffffffffff168373ffffffffffffffffffffffffffffffffffffffff167f8c5be1e5ebec7d5bd14f71427d1e84f3dd0314c0f7b2291e5b200ac8c7c3b925836040516108dd919061148e565b60405180910390a3505050565b60006108f68484610690565b90507fffffffffffffffffffffffffffffffffffffffffffffffffffffffffffffffff81146109705781811015610962576040517f08c379a00000000000000000000000000000000000000000000000000000000081526004016109599061138e565b60405180910390fd5b61096f848484840361071f565b5b50505050565b600073ffffffffffffffffffffffffffffffffffffffff168373ffffffffffffffffffffffffffffffffffffffff1614156109e6576040517f08c379a00000000000000000000000000000000000000000000000000000000081526004016109dd906113ee565b60405180910390fd5b600073ffffffffffffffffffffffffffffffffffffffff168273ffffffffffffffffffffffffffffffffffffffff161415610a56576040517f08c379a0000000000000000000000000000000000000000000000000000000008152600401610a4d9061134e565b60405180910390fd5b610a61838383610ea8565b6000603360008573ffffffffffffffffffffffffffffffffffffffff1673ffffffffffffffffffffffffffffffffffffffff16815260200190815260200160002054905081811015610ae8576040517f08c379a0000000000000000000000000000000000000000000000000000000008152600401610adf906113ae565b60405180910390fd5b818103603360008673ffffffffffffffffffffffffffffffffffffffff1673ffffffffffffffffffffffffffffffffffffffff1681526020019081526020016000208190555081603360008573ffffffffffffffffffffffffffffffffffffffff1673ffffffffffffffffffffffffffffffffffffffff1681526020019081526020016000206000828254610b7d91906114e0565b925050819055508273ffffffffffffffffffffffffffffffffffffffff168473ffffffffffffffffffffffffffffffffffffffff167fddf252ad1be2c89b69c2b068fc378daa952ba7f163c4a11628f55a4df523b3ef84604051610be1919061148e565b60405180910390a3610bf4848484610ead565b50505050565b60008060019054906101000a900460ff1615610c715760018260ff16148015610c295750610c2730610eb2565b155b610c68576040517f08c379a0000000000000000000000000000000000000000000000000000000008152600401610c5f906113ce565b60405180910390fd5b60009050610ce5565b8160ff1660008054906101000a900460ff1660ff1610610cc6576040517f08c379a0000000000000000000000000000000000000000000000000000000008152600401610cbd906113ce565b60405180910390fd5b816000806101000a81548160ff021916908360ff160217905550600190505b919050565b600060019054906101000a900460ff16610d39576040517f08c379a0000000000000000000000000000000000000000000000000000000008152600401610d309061142e565b60405180910390fd5b610d438282610ed5565b5050565b600073ffffffffffffffffffffffffffffffffffffffff168273ffffffffffffffffffffffffffffffffffffffff161415610db7576040517f08c379a0000000000000000000000000000000000000000000000000000000008152600401610dae9061146e565b60405180910390fd5b610dc360008383610ea8565b8060356000828254610dd591906114e0565b9250508190555080603360008473ffffffffffffffffffffffffffffffffffffffff1673ffffffffffffffffffffffffffffffffffffffff1681526020019081526020016000206000828254610e2b91906114e0565b925050819055508173ffffffffffffffffffffffffffffffffffffffff16600073ffffffffffffffffffffffffffffffffffffffff167fddf252ad1be2c89b69c2b068fc378daa952ba7f163c4a11628f55a4df523b3ef83604051610e90919061148e565b60405180910390a3610ea460008383610ead565b5050565b505050565b505050565b6000808273ffffffffffffffffffffffffffffffffffffffff163b119050919050565b600060019054906101000a900460ff16610f24576040517f08c379a0000000000000000000000000000000000000000000000000000000008152600401610f1b9061142e565b60405180910390fd5b8160369080519060200190610f3a929190610f56565b508060379080519060200190610f51929190610f56565b505050565b828054610f62906115d0565b90600052602060002090601f016020900481019282610f845760008555610fcb565b82601f10610f9d57805160ff1916838001178555610fcb565b82800160010185558215610fcb579182015b82811115610fca578251825591602001919060010190610faf565b5b509050610fd89190610fdc565b5090565b5b80821115610ff5576000816000905550600101610fdd565b5090565b60008135905061100881611940565b92915050565b60008135905061101d81611957565b92915050565b60006020828403121561103957611038611660565b5b600061104784828501610ff9565b91505092915050565b6000806040838503121561106757611066611660565b5b600061107585828601610ff9565b925050602061108685828601610ff9565b9150509250929050565b6000806000606084860312156110a9576110a8611660565b5b60006110b786828701610ff9565b93505060206110c886828701610ff9565b92505060406110d98682870161100e565b9150509250925092565b600080604083850312156110fa576110f9611660565b5b600061110885828601610ff9565b92505060206111198582860161100e565b9150509250929050565b61112c81611548565b82525050565b61113b8161158b565b82525050565b600061114c826114c4565b61115681856114cf565b935061116681856020860161159d565b61116f81611665565b840191505092915050565b60006111876023836114cf565b915061119282611676565b604082019050919050565b60006111aa6022836114cf565b91506111b5826116c5565b604082019050919050565b60006111cd601d836114cf565b91506111d882611714565b602082019050919050565b60006111f06026836114cf565b91506111fb8261173d565b604082019050919050565b6000611213602e836114cf565b915061121e8261178c565b604082019050919050565b60006112366025836114cf565b9150611241826117db565b604082019050919050565b60006112596024836114cf565b91506112648261182a565b604082019050919050565b600061127c602b836114cf565b915061128782611879565b604082019050919050565b600061129f6025836114cf565b91506112aa826118c8565b604082019050919050565b60006112c2601f836114cf565b91506112cd82611917565b602082019050919050565b6112e181611574565b82525050565b6112f08161157e565b82525050565b600060208201905061130b6000830184611123565b92915050565b60006020820190506113266000830184611132565b92915050565b600060208201905081810360008301526113468184611141565b905092915050565b600060208201905081810360008301526113678161117a565b9050919050565b600060208201905081810360008301526113878161119d565b9050919050565b600060208201905081810360008301526113a7816111c0565b9050919050565b600060208201905081810360008301526113c7816111e3565b9050919050565b600060208201905081810360008301526113e781611206565b9050919050565b6000602082019050818103600083015261140781611229565b9050919050565b600060208201905081810360008301526114278161124c565b9050919050565b600060208201905081810360008301526114478161126f565b9050919050565b6000602082019050818103600083015261146781611292565b9050919050565b60006020820190508181036000830152611487816112b5565b9050919050565b60006020820190506114a360008301846112d8565b92915050565b60006020820190506114be60008301846112e7565b92915050565b600081519050919050565b600082825260208201905092915050565b60006114eb82611574565b91506114f683611574565b9250827fffffffffffffffffffffffffffffffffffffffffffffffffffffffffffffffff0382111561152b5761152a611602565b5b828201905092915050565b600061154182611554565b9050919050565b60008115159050919050565b600073ffffffffffffffffffffffffffffffffffffffff82169050919050565b6000819050919050565b600060ff82169050919050565b60006115968261157e565b9050919050565b60005b838110156115bb5780820151818401526020810190506115a0565b838111156115ca576000848401525b50505050565b600060028204905060018216806115e857607f821691505b602082108114156115fc576115fb611631565b5b50919050565b7f4e487b7100000000000000000000000000000000000000000000000000000000600052601160045260246000fd5b7f4e487b7100000000000000000000000000000000000000000000000000000000600052602260045260246000fd5b600080fd5b6000601f19601f8301169050919050565b7f45524332303a207472616e7366657220746f20746865207a65726f206164647260008201527f6573730000000000000000000000000000000000000000000000000000000000602082015250565b7f45524332303a20617070726f766520746f20746865207a65726f20616464726560008201527f7373000000000000000000000000000000000000000000000000000000000000602082015250565b7f45524332303a20696e73756666696369656e7420616c6c6f77616e6365000000600082015250565b7f45524332303a207472616e7366657220616d6f756e742065786365656473206260008201527f616c616e63650000000000000000000000000000000000000000000000000000602082015250565b7f496e697469616c697a61626c653a20636f6e747261637420697320616c72656160008201527f647920696e697469616c697a6564000000000000000000000000000000000000602082015250565b7f45524332303a207472616e736665722066726f6d20746865207a65726f20616460008201527f6472657373000000000000000000000000000000000000000000000000000000602082015250565b7f45524332303a20617070726f76652066726f6d20746865207a65726f2061646460008201527f7265737300000000000000000000000000000000000000000000000000000000602082015250565b7f496e697469616c697a61626c653a20636f6e7472616374206973206e6f74206960008201527f6e697469616c697a696e67000000000000000000000000000000000000000000602082015250565b7f45524332303a2064656372656173656420616c6c6f77616e63652062656c6f7760008201527f207a65726f000000000000000000000000000000000000000000000000000000602082015250565b7f45524332303a206d696e7420746f20746865207a65726f206164647265737300600082015250565b61194981611536565b811461195457600080fd5b50565b61196081611574565b811461196b57600080fd5b5056fea2646970667358221220d25314d3eff27ae63a94c7b2f4e2f5861d7c05461078476d24798fc759589bd964736f6c63430008070033",
  "linkReferences": {},
  "deployedLinkReferences": {}
}