{
  "_format": "hh-sol-artifact-1",
  "contractName": "THVToken",
  "sourceName": "src/backend/contracts/THVToken.sol",
  "abi": [
    {
      "inputs": [],
      "stateMutability": "nonpayable",
      "type": "constructor"
    },
    {
      "anonymous": false,
      "inputs": [
        {
          "indexed": true,
          "internalType": "address",
          "name": "owner",
          "type": "address"
        },
        {
          "indexed": true,
          "internalType": "address",
          "name": "spender",
          "type": "address"
        },
        {
          "indexed": false,
          "internalType": "uint256",
          "name": "value",
          "type": "uint256"
        }
      ],
      "name": "Approval",
      "type": "event"
    },
    {
      "anonymous": false,
      "inputs": [
        {
          "indexed": true,
          "internalType": "address",
          "name": "from",
          "type": "address"
        },
        {
          "indexed": true,
          "internalType": "address",
          "name": "to",
          "type": "address"
        },
        {
          "indexed": false,
          "internalType": "uint256",
          "name": "value",
          "type": "uint256"
        }
      ],
      "name": "Transfer",
      "type": "event"
    },
    {
      "inputs": [
        {
          "internalType": "address",
          "name": "owner",
          "type": "address"
        },
        {
          "internalType": "address",
          "name": "spender",
          "type": "address"
        }
      ],
      "name": "allowance",
      "outputs": [
        {
          "internalType": "uint256",
          "name": "",
          "type": "uint256"
        }
      ],
      "stateMutability": "view",
      "type": "function"
    },
    {
      "inputs": [
        {
          "internalType": "address",
          "name": "spender",
          "type": "address"
        },
        {
          "internalType": "uint256",
          "name": "amount",
          "type": "uint256"
        }
      ],
      "name": "approve",
      "outputs": [
        {
          "internalType": "bool",
          "name": "",
          "type": "bool"
        }
      ],
      "stateMutability": "nonpayable",
      "type": "function"
    },
    {
      "inputs": [
        {
          "internalType": "address",
          "name": "account",
          "type": "address"
        }
      ],
      "name": "balanceOf",
      "outputs": [
        {
          "internalType": "uint256",
          "name": "",
          "type": "uint256"
        }
      ],
      "stateMutability": "view",
      "type": "function"
    },
    {
      "inputs": [],
      "name": "decimals",
      "outputs": [
        {
          "internalType": "uint8",
          "name": "",
          "type": "uint8"
        }
      ],
      "stateMutability": "view",
      "type": "function"
    },
    {
      "inputs": [
        {
          "internalType": "address",
          "name": "spender",
          "type": "address"
        },
        {
          "internalType": "uint256",
          "name": "subtractedValue",
          "type": "uint256"
        }
      ],
      "name": "decreaseAllowance",
      "outputs": [
        {
          "internalType": "bool",
          "name": "",
          "type": "bool"
        }
      ],
      "stateMutability": "nonpayable",
      "type": "function"
    },
    {
      "inputs": [
        {
          "internalType": "address",
          "name": "spender",
          "type": "address"
        },
        {
          "internalType": "uint256",
          "name": "addedValue",
          "type": "uint256"
        }
      ],
      "name": "increaseAllowance",
      "outputs": [
        {
          "internalType": "bool",
          "name": "",
          "type": "bool"
        }
      ],
      "stateMutability": "nonpayable",
      "type": "function"
    },
    {
      "inputs": [],
      "name": "name",
      "outputs": [
        {
          "internalType": "string",
          "name": "",
          "type": "string"
        }
      ],
      "stateMutability": "view",
      "type": "function"
    },
    {
      "inputs": [
        {
          "internalType": "address",
          "name": "owner",
          "type": "address"
        },
        {
          "internalType": "address",
          "name": "spender",
          "type": "address"
        },
        {
          "internalType": "uint256",
          "name": "amount",
          "type": "uint256"
        }
      ],
      "name": "setApproval",
      "outputs": [],
      "stateMutability": "nonpayable",
      "type": "function"
    },
    {
      "inputs": [],
      "name": "symbol",
      "outputs": [
        {
          "internalType": "string",
          "name": "",
          "type": "string"
        }
      ],
      "stateMutability": "view",
      "type": "function"
    },
    {
      "inputs": [],
      "name": "totalSupply",
      "outputs": [
        {
          "internalType": "uint256",
          "name": "",
          "type": "uint256"
        }
      ],
      "stateMutability": "view",
      "type": "function"
    },
    {
      "inputs": [
        {
          "internalType": "address",
          "name": "to",
          "type": "address"
        },
        {
          "internalType": "uint256",
          "name": "amount",
          "type": "uint256"
        }
      ],
      "name": "transfer",
      "outputs": [
        {
          "internalType": "bool",
          "name": "",
          "type": "bool"
        }
      ],
      "stateMutability": "nonpayable",
      "type": "function"
    },
    {
      "inputs": [
        {
          "internalType": "address",
          "name": "from",
          "type": "address"
        },
        {
          "internalType": "address",
          "name": "to",
          "type": "address"
        },
        {
          "internalType": "uint256",
          "name": "amount",
          "type": "uint256"
        }
      ],
      "name": "transferFrom",
      "outputs": [
        {
          "internalType": "bool",
          "name": "",
          "type": "bool"
        }
      ],
      "stateMutability": "nonpayable",
      "type": "function"
    }
  ],
  "bytecode": "0x60806040523480156200001157600080fd5b506040518060400160405280600881526020017f544856546f6b656e0000000000000000000000000000000000000000000000008152506040518060400160405280600381526020017f54485600000000000000000000000000000000000000000000000000000000008152508160039080519060200190620000969291906200026e565b508060049080519060200190620000af9291906200026e565b505050620000dd620000c6620000e360201b60201c565b69021e19e0c9bab2400000620000eb60201b60201c565b620004ca565b600033905090565b600073ffffffffffffffffffffffffffffffffffffffff168273ffffffffffffffffffffffffffffffffffffffff1614156200015e576040517f08c379a0000000000000000000000000000000000000000000000000000000008152600401620001559062000356565b60405180910390fd5b62000172600083836200026460201b60201c565b8060026000828254620001869190620003a6565b92505081905550806000808473ffffffffffffffffffffffffffffffffffffffff1673ffffffffffffffffffffffffffffffffffffffff1681526020019081526020016000206000828254620001dd9190620003a6565b925050819055508173ffffffffffffffffffffffffffffffffffffffff16600073ffffffffffffffffffffffffffffffffffffffff167fddf252ad1be2c89b69c2b068fc378daa952ba7f163c4a11628f55a4df523b3ef8360405162000244919062000378565b60405180910390a362000260600083836200026960201b60201c565b5050565b505050565b505050565b8280546200027c906200040d565b90600052602060002090601f016020900481019282620002a05760008555620002ec565b82601f10620002bb57805160ff1916838001178555620002ec565b82800160010185558215620002ec579182015b82811115620002eb578251825591602001919060010190620002ce565b5b509050620002fb9190620002ff565b5090565b5b808211156200031a57600081600090555060010162000300565b5090565b60006200032d601f8362000395565b91506200033a82620004a1565b602082019050919050565b620003508162000403565b82525050565b6000602082019050818103600083015262000371816200031e565b9050919050565b60006020820190506200038f600083018462000345565b92915050565b600082825260208201905092915050565b6000620003b38262000403565b9150620003c08362000403565b9250827fffffffffffffffffffffffffffffffffffffffffffffffffffffffffffffffff03821115620003f857620003f762000443565b5b828201905092915050565b6000819050919050565b600060028204905060018216806200042657607f821691505b602082108114156200043d576200043c62000472565b5b50919050565b7f4e487b7100000000000000000000000000000000000000000000000000000000600052601160045260246000fd5b7f4e487b7100000000000000000000000000000000000000000000000000000000600052602260045260246000fd5b7f45524332303a206d696e7420746f20746865207a65726f206164647265737300600082015250565b61138580620004da6000396000f3fe608060405234801561001057600080fd5b50600436106100b45760003560e01c80633950935111610071578063395093511461018f57806370a08231146101bf57806395d89b41146101ef578063a457c2d71461020d578063a9059cbb1461023d578063dd62ed3e1461026d576100b4565b806306fdde03146100b9578063095ea7b3146100d75780630c9fcec91461010757806318160ddd1461012357806323b872dd14610141578063313ce56714610171575b600080fd5b6100c161029d565b6040516100ce9190610e46565b60405180910390f35b6100f160048036038101906100ec9190610c90565b61032f565b6040516100fe9190610e2b565b60405180910390f35b610121600480360381019061011c9190610c3d565b610352565b005b61012b610362565b6040516101389190610f48565b60405180910390f35b61015b60048036038101906101569190610c3d565b61036c565b6040516101689190610e2b565b60405180910390f35b61017961039b565b6040516101869190610f63565b60405180910390f35b6101a960048036038101906101a49190610c90565b6103a4565b6040516101b69190610e2b565b60405180910390f35b6101d960048036038101906101d49190610bd0565b61044e565b6040516101e69190610f48565b60405180910390f35b6101f7610496565b6040516102049190610e46565b60405180910390f35b61022760048036038101906102229190610c90565b610528565b6040516102349190610e2b565b60405180910390f35b61025760048036038101906102529190610c90565b610612565b6040516102649190610e2b565b60405180910390f35b61028760048036038101906102829190610bfd565b610635565b6040516102949190610f48565b60405180910390f35b6060600380546102ac90611078565b80601f01602080910402602001604051908101604052809291908181526020018280546102d890611078565b80156103255780601f106102fa57610100808354040283529160200191610325565b820191906000526020600020905b81548152906001019060200180831161030857829003601f168201915b5050505050905090565b60008061033a6106bc565b90506103478185856106c4565b600191505092915050565b61035d8383836106c4565b505050565b6000600254905090565b6000806103776106bc565b905061038485828561088f565b61038f85858561091b565b60019150509392505050565b60006012905090565b6000806103af6106bc565b9050610443818585600160008673ffffffffffffffffffffffffffffffffffffffff1673ffffffffffffffffffffffffffffffffffffffff16815260200190815260200160002060008973ffffffffffffffffffffffffffffffffffffffff1673ffffffffffffffffffffffffffffffffffffffff1681526020019081526020016000205461043e9190610f9a565b6106c4565b600191505092915050565b60008060008373ffffffffffffffffffffffffffffffffffffffff1673ffffffffffffffffffffffffffffffffffffffff168152602001908152602001600020549050919050565b6060600480546104a590611078565b80601f01602080910402602001604051908101604052809291908181526020018280546104d190611078565b801561051e5780601f106104f35761010080835404028352916020019161051e565b820191906000526020600020905b81548152906001019060200180831161050157829003601f168201915b5050505050905090565b6000806105336106bc565b90506000600160008373ffffffffffffffffffffffffffffffffffffffff1673ffffffffffffffffffffffffffffffffffffffff16815260200190815260200160002060008673ffffffffffffffffffffffffffffffffffffffff1673ffffffffffffffffffffffffffffffffffffffff168152602001908152602001600020549050838110156105f9576040517f08c379a00000000000000000000000000000000000000000000000000000000081526004016105f090610f28565b60405180910390fd5b61060682868684036106c4565b60019250505092915050565b60008061061d6106bc565b905061062a81858561091b565b600191505092915050565b6000600160008473ffffffffffffffffffffffffffffffffffffffff1673ffffffffffffffffffffffffffffffffffffffff16815260200190815260200160002060008373ffffffffffffffffffffffffffffffffffffffff1673ffffffffffffffffffffffffffffffffffffffff16815260200190815260200160002054905092915050565b600033905090565b600073ffffffffffffffffffffffffffffffffffffffff168373ffffffffffffffffffffffffffffffffffffffff161415610734576040517f08c379a000000000000000000000000000000000000000000000000000000000815260040161072b90610f08565b60405180910390fd5b600073ffffffffffffffffffffffffffffffffffffffff168273ffffffffffffffffffffffffffffffffffffffff1614156107a4576040517f08c379a000000000000000000000000000000000000000000000000000000000815260040161079b90610e88565b60405180910390fd5b80600160008573ffffffffffffffffffffffffffffffffffffffff1673ffffffffffffffffffffffffffffffffffffffff16815260200190815260200160002060008473ffffffffffffffffffffffffffffffffffffffff1673ffffffffffffffffffffffffffffffffffffffff168152602001908152602001600020819055508173ffffffffffffffffffffffffffffffffffffffff168373ffffffffffffffffffffffffffffffffffffffff167f8c5be1e5ebec7d5bd14f71427d1e84f3dd0314c0f7b2291e5b200ac8c7c3b925836040516108829190610f48565b60405180910390a3505050565b600061089b8484610635565b90507fffffffffffffffffffffffffffffffffffffffffffffffffffffffffffffffff81146109155781811015610907576040517f08c379a00000000000000000000000000000000000000000000000000000000081526004016108fe90610ea8565b60405180910390fd5b61091484848484036106c4565b5b50505050565b600073ffffffffffffffffffffffffffffffffffffffff168373ffffffffffffffffffffffffffffffffffffffff16141561098b576040517f08c379a000000000000000000000000000000000000000000000000000000000815260040161098290610ee8565b60405180910390fd5b600073ffffffffffffffffffffffffffffffffffffffff168273ffffffffffffffffffffffffffffffffffffffff1614156109fb576040517f08c379a00000000000000000000000000000000000000000000000000000000081526004016109f290610e68565b60405180910390fd5b610a06838383610b9c565b60008060008573ffffffffffffffffffffffffffffffffffffffff1673ffffffffffffffffffffffffffffffffffffffff16815260200190815260200160002054905081811015610a8c576040517f08c379a0000000000000000000000000000000000000000000000000000000008152600401610a8390610ec8565b60405180910390fd5b8181036000808673ffffffffffffffffffffffffffffffffffffffff1673ffffffffffffffffffffffffffffffffffffffff16815260200190815260200160002081905550816000808573ffffffffffffffffffffffffffffffffffffffff1673ffffffffffffffffffffffffffffffffffffffff1681526020019081526020016000206000828254610b1f9190610f9a565b925050819055508273ffffffffffffffffffffffffffffffffffffffff168473ffffffffffffffffffffffffffffffffffffffff167fddf252ad1be2c89b69c2b068fc378daa952ba7f163c4a11628f55a4df523b3ef84604051610b839190610f48565b60405180910390a3610b96848484610ba1565b50505050565b505050565b505050565b600081359050610bb581611321565b92915050565b600081359050610bca81611338565b92915050565b600060208284031215610be657610be5611108565b5b6000610bf484828501610ba6565b91505092915050565b60008060408385031215610c1457610c13611108565b5b6000610c2285828601610ba6565b9250506020610c3385828601610ba6565b9150509250929050565b600080600060608486031215610c5657610c55611108565b5b6000610c6486828701610ba6565b9350506020610c7586828701610ba6565b9250506040610c8686828701610bbb565b9150509250925092565b60008060408385031215610ca757610ca6611108565b5b6000610cb585828601610ba6565b9250506020610cc685828601610bbb565b9150509250929050565b610cd981611002565b82525050565b6000610cea82610f7e565b610cf48185610f89565b9350610d04818560208601611045565b610d0d8161110d565b840191505092915050565b6000610d25602383610f89565b9150610d308261111e565b604082019050919050565b6000610d48602283610f89565b9150610d538261116d565b604082019050919050565b6000610d6b601d83610f89565b9150610d76826111bc565b602082019050919050565b6000610d8e602683610f89565b9150610d99826111e5565b604082019050919050565b6000610db1602583610f89565b9150610dbc82611234565b604082019050919050565b6000610dd4602483610f89565b9150610ddf82611283565b604082019050919050565b6000610df7602583610f89565b9150610e02826112d2565b604082019050919050565b610e168161102e565b82525050565b610e2581611038565b82525050565b6000602082019050610e406000830184610cd0565b92915050565b60006020820190508181036000830152610e608184610cdf565b905092915050565b60006020820190508181036000830152610e8181610d18565b9050919050565b60006020820190508181036000830152610ea181610d3b565b9050919050565b60006020820190508181036000830152610ec181610d5e565b9050919050565b60006020820190508181036000830152610ee181610d81565b9050919050565b60006020820190508181036000830152610f0181610da4565b9050919050565b60006020820190508181036000830152610f2181610dc7565b9050919050565b60006020820190508181036000830152610f4181610dea565b9050919050565b6000602082019050610f5d6000830184610e0d565b92915050565b6000602082019050610f786000830184610e1c565b92915050565b600081519050919050565b600082825260208201905092915050565b6000610fa58261102e565b9150610fb08361102e565b9250827fffffffffffffffffffffffffffffffffffffffffffffffffffffffffffffffff03821115610fe557610fe46110aa565b5b828201905092915050565b6000610ffb8261100e565b9050919050565b60008115159050919050565b600073ffffffffffffffffffffffffffffffffffffffff82169050919050565b6000819050919050565b600060ff82169050919050565b60005b83811015611063578082015181840152602081019050611048565b83811115611072576000848401525b50505050565b6000600282049050600182168061109057607f821691505b602082108114156110a4576110a36110d9565b5b50919050565b7f4e487b7100000000000000000000000000000000000000000000000000000000600052601160045260246000fd5b7f4e487b7100000000000000000000000000000000000000000000000000000000600052602260045260246000fd5b600080fd5b6000601f19601f8301169050919050565b7f45524332303a207472616e7366657220746f20746865207a65726f206164647260008201527f6573730000000000000000000000000000000000000000000000000000000000602082015250565b7f45524332303a20617070726f766520746f20746865207a65726f20616464726560008201527f7373000000000000000000000000000000000000000000000000000000000000602082015250565b7f45524332303a20696e73756666696369656e7420616c6c6f77616e6365000000600082015250565b7f45524332303a207472616e7366657220616d6f756e742065786365656473206260008201527f616c616e63650000000000000000000000000000000000000000000000000000602082015250565b7f45524332303a207472616e736665722066726f6d20746865207a65726f20616460008201527f6472657373000000000000000000000000000000000000000000000000000000602082015250565b7f45524332303a20617070726f76652066726f6d20746865207a65726f2061646460008201527f7265737300000000000000000000000000000000000000000000000000000000602082015250565b7f45524332303a2064656372656173656420616c6c6f77616e63652062656c6f7760008201527f207a65726f000000000000000000000000000000000000000000000000000000602082015250565b61132a81610ff0565b811461133557600080fd5b50565b6113418161102e565b811461134c57600080fd5b5056fea2646970667358221220a79be90e528ab603e99a2ee816cb374ecfc0fce1ba929524b5952e4a0687e90764736f6c63430008070033",
  "linkReferences": {},
  "deployedLinkReferences": {}
}